:020000040800F2
:10000000680B0020091D000875040008770400082B
:100010007B0400087F04000883040008000000003F
:10002000000000000000000000000000870400083D
:1000300089040008000000008B0400088D040008FB
:10004000231D0008231D0008231D000809050008C2
:10005000231D0008231D0008231D0008231D000880
:10006000231D0008231D0008231D0008231D000870
:10007000231D0008231D0008231D0008231D000860
:10008000231D0008231D0008231D0008231D000850
:10009000231D0008231D0008231D0008231D000840
:1000A000231D0008231D0008231D0008231D000830
:1000B0008F040008231D0008231D0008231D0008CD
:1000C000231D0008231D0008231D0008231D000810
:1000D000231D0008AF040008231D0008231D00088D
:1000E000231D0008231D0008231D000800F002F84E
:1000F00000F07BF80AA090E8000C82448344AAF147
:100100000107DA4501D100F070F8AFF2090EBAE844
:100110000F0013F0010F18BFFB1A43F0010318473B
:1001200098800000B88000000A444FF0000C10F8DE
:10013000013B13F0070408BF10F8014B1D1108BF65
:1001400010F8015B641E05D010F8016B641E01F805
:10015000016BF9D113F0080F1EBF10F8014BAD1C55
:100160000C1B09D16D1E58BF01F801CBFAD505E073
:1001700014F8016B01F8016B6D1EF9D59142D6D3CD
:10018000704700000023002400250026103A28BFF5
:1001900078C1FBD8520728BF30C148BF0B607047F9
:1001A000662907F02583642903F0D687732904F0B4
:1001B000F883002070471FB59DE8030004F0F2FFAC
:1001C00004F04AFC04000020002106F077FB401CEC
:1001D00060600020002106F05BFBE06004F08CFD15
:1001E0001FBD10B504F0F1FD10BD04F054FE114622
:1001F000FFF7E1FF00F062F804F066FF03B4FFF7D9
:10020000F0FF03BC05F040F92DE9F041D0B0044601
:10021000002078490860642105A804F0F1F876A16F
:1002200005A804F0AFF8784878A10268684603F0A2
:1002300055FF694605A804F0A5F875A105A804F0C6
:10024000A1F854F8048B404607F0F8F805462A4612
:100250000B4673A1684603F041FF694605A804F008
:1002600091F8012519E054F8048B404607F0E6F8B0
:1002700006466D4A6D4B06F0CFFE0DD2404607F0A4
:10028000DDF8064632460B4669A1684603F026FFB4
:10029000694605A804F076F86D1C282DE3DB694655
:1002A00005A804F06FF864A105A804F06BF805A98F
:1002B00062A003F007FF50B0BDE8F081A8B00026AF
:1002C0000024002701F00FFC01F07AF85C4801F0EF
:1002D000CCF800F0B2FA00F0BFFA0121594802F060
:1002E00064FA01F01AFC002240F22551564803F04E
:1002F000C0FD56480368564802685648016856488B
:10030000006800F0C3FA012240F225514E4803F084
:10031000B0FD0020374908606BE036480068B0F552
:10032000FA7F3FD90020334908604C48008807F025
:100330009BF980464A4907F0B9F805463846791CCA
:10034000CFB24DF82050641046480168284607F0A7
:100350001EFA01D244F08004E02C0EDD6EB968462E
:10036000FFF752FF002003E000214DF82010401C51
:100370002828F9DB0027012614E0102C12DA012EC0
:1003800010D16846FFF740FF002003E000214DF840
:100390002010401C2828F9DB0027002601212948CD
:1003A00002F003FA3048006801280AD100202E49E3
:1003B0000860012E03D10121224802F0F4F901F076
:1003C00058FA2A480078012805D1002027490870EA
:1003D000274800F0ECFA282F0BD16846FFF714FFEE
:1003E000002003E000214DF82010401C2828F9DBF4
:1003F000002792E7100000207B2244657669636540
:100400004944223A20000000040000202564000036
:100410002C20225072657373757265223A205B003E
:10042000252E3366000000007B14AE47E17A843F3E
:100430002C252E33660000005D7D00002573000032
:100440002C0000200008014000380140240000205A
:10045000200000201C000020180000208800002040
:100460000020804528000020B80100200E00002058
:1004700078020020704700BFFEE700BFFEE700BF24
:10048000FEE700BFFEE7704770477047704710B542
:100490000121880703F0FDFB40B128480068401C9B
:1004A000264908600121880703F004FC10BD10B53F
:1004B00000BF40F22551224803F0C0FD60B1204842
:1004C000001D0088C1B21F4802880088401C1D4BD7
:1004D00018801D48815416E040F22441184803F06A
:1004E000ADFD80B116480088C4B21548001D0088D3
:1004F000C4B201201549087000201349114A12881E
:1005000088541049088010BD10B5012002F0AEFCDF
:1005100038B1012002F0BAFC01200D49086002F058
:1005200077FC022002F0A2FC38B1012009490860E2
:10053000022002F0ABFC02F06BFC10BD10000020AA
:10054000003801400C000020780200200E0000203E
:10055000B4010020B80100200CB5002001900090EB
:100560006C48006840F480306A49086000BF694800
:10057000006800F4003000900198401C0190009841
:1005800018B90198B0F5A06FF1D16248006800F485
:10059000003010B10120009001E000200090009890
:1005A000012843D15C48006840F010005A490860B7
:1005B0000846006820F0030008600846006840F024
:1005C0000200086053484068524948600846406845
:1005D00048600846406840F48060486008464068CB
:1005E00020F47C1048600846406840F4E8104860F9
:1005F0000846006840F08070086000BF4548006809
:1006000000F000700028F9D04248406820F0030054
:10061000404948600846406840F00200486000BF1A
:100620003C48406800F00C000828F9D10CBD10B51A
:10063000FFF792FF10BD10B53648006840F001008A
:1006400034490860084640683449084031494860E8
:1006500008460068324908402E490860084600688C
:1006600020F4802008600846406820F4FE004860BE
:100670004FF41F008860FFF7DAFF4FF00060294950
:10068000086010BD10B5002100200022214B5B68DE
:1006900003F00C0121B1042906D0082928D107E074
:1006A000214B224C236027E01F4B204C236023E08A
:1006B000184B5B6803F47010164B5B6803F48032D0
:1006C000022303EB904022B9194B4343174C23609C
:1006D0000DE0104B5B6803F4003323B1144B43432C
:1006E000124C236003E0104B4343104C236003E0A3
:1006F0000D4B0E4C236000BF00BF064B5B68C3F37D
:1007000003130C4CE15C094B1B68CB40074C236086
:1007100010BD000000100240002002400000FFF861
:10072000FFFFF6FE08ED00E000127A0074000020E2
:1007300000093D007800002008B50121042002F0E6
:10074000A7FA0220ADF8000000208DF803006946EA
:100750003D4801F07BFF08BD00B591B0012108467E
:1007600002F089FA0121480202F092FA374801F0BA
:10077000E3FD374806903748079000200890012095
:10078000099000200A900B904FF480700C9080002C
:100790000D9020200E9000020F900020109006A9CE
:1007A0002A4801F06BFE0121284801F092FE00204A
:1007B00001908DF8080001208DF809004FF46020A9
:1007C00003900020049001208DF8140001A9204816
:1007D0004C3801F04EFB4FF4404002F0BDF90523C8
:1007E000012211461A484C3801F0DBFB0121184860
:1007F0004C3801F075FB012115484C3801F065FBC0
:1008000013484C3801F083FB00BF11484C3801F00D
:1008100083FB0028F9D10E484C3801F087FB00BF5C
:100820000B484C3801F087FB0028F9D1012108481A
:100830004C3801F08AFB11B000BD10B5FFF77CFF0A
:10084000FFF78AFF10BD00000008014008000240C9
:100850004C2401408800002008B50121042002F04A
:1008600017FA0120ADF8000010208DF803000320D6
:100870008DF802006946044801F0E8FE01210248B3
:1008800001F093FF08BD0000000801402DE9F04190
:1008900004460D4616461F467FA003F013FC0020B9
:1008A0007E49086000BF7D480068B0F5FA7FFAD342
:1008B0007BA003F007FC00207849086000BF774860
:1008C0000068B0F5FA6FFAD379A003F0FBFB0020C3
:1008D0007249086000BF71480068B0F5FA7FFAD32A
:1008E0002A46214676A003F0EDFB00206B49086004
:1008F00000BF6A48006841F658318842F9D33A4649
:10090000314675A003F0DEFB00206449086000BF9B
:1009100062480068B0F57A7FFAD376A003F0D2FB84
:1009200000205E49086000BF5C480068B0F5FA7FAF
:10093000FAD374A003F0C6FB00205849086000BF3A
:1009400056480068B0F5FA7FFAD3BDE8F08170B57B
:1009500004460D4629466FA003F0B4FB214671A062
:1009600003F0B0FB70BD70B506460C46214630461C
:1009700003F0D7FC051E06D0204603F0E4FC284413
:10098000051D284670BD0020FCE770B506460C46E4
:100990002146304603F0C5FC051E06D0204603F074
:1009A000D2FC2844C51C284670BD0020FCE72DE978
:1009B000F04196B0804600200390049005905AA123
:1009C0004046FFF7E2FF041E62D0002004E014F866
:1009D000011B03AA1154401C2178302902DD217823
:1009E0003929F4DB03A803F08FFC06465048016860
:1009F000B1424DD006604FA14046FFF7B4FF041E40
:100A000011D0002505E014F8012B28466D1C0EA915
:100A10000A5420782228F6D100200EA948550EA8A5
:100A200000F09CFE00BF01F017F845A14046FFF71B
:100A3000ACFF041E2CD020783038C7B2002521E04E
:100A400000200090019002902A4641A1684603F0E0
:100A500045FB69464046FFF786FF041E0DD0002087
:100A600005E014F8013B0146401C06AA5354222815
:100A7000F7D1002106AA115400BF294606A800F0AC
:100A8000A2FE6D1CBD4201DA032DD9DB00F0F1FEA0
:100A900016B0BDE8F08100002B2B2B0010000020C9
:100AA00041542B524553544F52450D0A000000004B
:100AB00041542B43574D4F44453D310D0A00000032
:100AC00041542B43574A41503D222573222C222565
:100AD00073220D0A0000000041542B434950535427
:100AE0004152543D22544350222C222573222C255E
:100AF000640D0A0041542B4349504D4F44453D314C
:100B00000D0A000041542B43495053454E440D0AF1
:100B10000000000041542B43495053454E443D25AD
:100B20006400000025730000486173680000000045
:100B3000080000204461746554696D650000000080
:100B4000506572696F644E756D62657200000000D9
:100B500057616B65757054696D6525640000000010
:100B600002460E2A70D2DFE802F086071019222B07
:100B7000353F49535D67727CF748405C00F00800E0
:100B800008B9002070470120FCE7F348405C00F002
:100B9000040008B90020F5E70120F3E7EE48405CC7
:100BA00000F0020008B90020ECE70120EAE7EA487B
:100BB000405C00F0010008B90020E3E70120E1E714
:100BC000E54B481C185C00F0800008B90020D9E70C
:100BD0000120D7E7E04B481C185C00F0400008B942
:100BE0000020CFE70120CDE7DB4B481C185C00F06C
:100BF000200008B90020C5E70120C3E7D64B481CF8
:100C0000185C00F0100008B90020BBE70120B9E72C
:100C1000D14B481C185C00F0080008B90020B1E76F
:100C20000120AFE7CC4B481C185C00F0040008B969
:100C30000020A7E70120A5E7C74B481C185C00F07F
:100C4000020010B900209DE715E001209AE7C24B91
:100C5000481C185C00F0010008B9002092E7012050
:100C600090E7BD4B881C185C00F0800008B900209C
:100C700088E7012086E7002084E72DE9FF4F83B055
:100C80000C461F466421039890FBF1F0C0B201901E
:100C9000039890FBF1F201FB1200C5B201981328F2
:100CA00006D00198142803D0002007B0BDE8F08FCB
:100CB0000198142806D105F1630000EB40001FFAEB
:100CC00080F904E0681E00EB40001FFA80F9A24999
:100CD00009F10200085C00F0600A4FEA6A1A09F1A3
:100CE0000200085C00F01F0BBAF1010F04D1ABF158
:100CF000010000F0FF0803E00BF11E0000F0FF0808
:100D00000A2C07DA601E9549095C05980844401EC4
:100D100086B208E0A4F10A00914931F81010059854
:100D20000844401E86B2022C08DDE91705EB9171DC
:100D30008910A5EB810109B9701C86B246453EDBDE
:100D4000A6EB080086B2012401200290002000904A
:100D500049460298FFF704FF10B94FF01D0A01E061
:100D60004FF01E0A7C4911F80900C11700EB117100
:100D70004FEA211B1DE0A6EB0A0086B20298401C38
:100D8000C0B202905C4508D10098C043C0B2009048
:100D9000009820B9601CC4B201E0601CC4B249468E
:100DA0000298FFF7DDFE10B94FF01D0A01E04FF089
:100DB0001E0A5645DFDA701CC0B205904FE0A8EB62
:100DC000060000F0FF081DB963251320019001E023
:100DD000681EC5B2A9F103001FFA80F90C245E4910
:100DE00011F80900C11700EB11714FEA211BBBF18B
:100DF000000F02D10C20029001E00D200290002093
:100E0000009049460298FFF7ABFE10B94FF01D0A5B
:100E100001E04FF01E0A1BE0A8EB0A0000F0FF08FB
:100E20000298401EC0B20290009808B9601EC4B279
:100E30005C4503D10098C043C0B200904946029877
:100E4000FFF78EFE10B94FF01D0A01E04FF01E0AA9
:100E5000D045E1DCAAEB0800401CC0B20590019827
:100E600007F8010B07F8015B07F8014B059838708C
:100E700001201AE710B50A46B0F5F86F09DBA0F5B6
:100E8000F86398B23C2390FBF3F403FB1403D9B24C
:100E90000AE0C0F5F86398B23C2390FBF3F403FB3F
:100EA0001403C3F13C03D9B2117010BD10B5002377
:100EB00005E011F8014B00F8014B5C1CA3B2934212
:100EC000F7DB10BD2DE9FC4105460E4617461C46D2
:100ED0000F2224A12046FFF7E9FF01AB3A46314635
:100EE0002846FFF7CAFE08B9BDE8FC819DF8052039
:100EF0009DF8041001EBC10303EB011102EB81002B
:100F00006946FFF7B7FF9DF800000A2190FBF1F258
:100F100001FB1200174951F8208002224146204669
:100F2000FFF7C4FF9DF800000C2190FBF1F201FBDC
:100F30001200114951F8208002224146A01CFFF7FF
:100F4000B5FF9DF8060001281AD102220BA1A01DB1
:100F5000FFF7ACFF1EE00000E4780008EA7B000821
:100F6000F47B0008BCD7D7D3C4EAD5FDD4C2B3F50F
:100F7000D2BB0000EC00002014010020D5FD0000D1
:100F80009DF80600401E8C4A52F820100222A01D37
:100F9000FFF78CFF9DF807000A280EDD9DF807007B
:100FA0000A2190FBF1F0854951F820800222414648
:100FB00004F10A00FFF77AFF05E0022280A104F1A4
:100FC0000A00FFF773FF9DF80700401E0A2190FBFF
:100FD000F1F201FB1200784951F8208002224146CB
:100FE00004F10C00FFF762FF00BF7DE72DE9F0413F
:100FF00004460D46B4F5FA6F03DB40F60200844266
:1010000002DD0020BDE8F0810DB10C2D01DD0020D6
:10101000F8E7681E4006010E0F2A01DB481CC1B22A
:1010200008464FEAE17C01EB5C7C4FEAEC08A4F552
:10103000FA6C0CEB4C0CC444DFF8888118F80C6097
:101040004FEAE17C01EB5C7C4FEAEC0CA1EBCC0CB1
:1010500006FA0CFC0CF080075B48405C187097B1F6
:10106000012905D00B2903D0122901D0152907D158
:1010700040F2FC70844203DA1878401C187002E0D9
:101080001878401E18700120BCE72DE9F84305468A
:10109000884614461E466B46224641462846FFF7C0
:1010A000A5FF10B90020BDE8F883A8F101004006B3
:1010B000070E0F2C01DB781CC7B29DF8000084429C
:1010C00008D1424850F8271005223046FFF7EEFEBF
:1010D0000120E8E70F223EA13046FFF7E7FE9DF82A
:1010E000000084420BDA394850F827100422B01C63
:1010F000FFF7DCFE9DF80000001BC4B24DE0781C39
:10110000172801DD0020CEE7304A781C52F8201065
:101110000422B01CFFF7CAFE0F2C0ADA6B460F221E
:1011200041462846FFF762FF9DF80000001BC4B24D
:1011300033E0A8F101002A4911F80090B8F1020F3C
:1011400017D1E91705EB91718910A5EB810181B9E0
:10115000642195FBF1F201FB125131B94FF4C871D2
:1011600095FBF1F201FB125119B909F1010000F0F0
:10117000FF0908F10100C0B280460D2801D14FF0EF
:1011800001086B46012241462846FFF72FFFA9EBD5
:1011900004009DF800100844C4B20A2094FBF0F04B
:1011A0003030B0720A2094FBF0F100FB1140303077
:1011B000F072012077E70000440100207401002054
:1011C000B3F50000397B0008D27B00088C000020BA
:1011D000C0EBC1A2B6ACBBB9D3D03F3FCCEC000052
:1011E000067C0008F0B58DB004463022704901A895
:1011F00003F0D4F86069451E642195FBF1F128469F
:10120000EA1705EB9272C1EBA2014FF4C87295FB8D
:10121000F2F28F186069C11700EB91718910A0EB91
:10122000810191B96422616991FBF2F302FB131110
:1012300031B99200616991FBF2F302FB131121B9FC
:101240002169022901DD012600E0002640F26D102F
:1012500005FB00712069401E01AA52F820000844D5
:10126000E16808440644072096FBF0F100FB11609A
:10127000A0610DB0F0BD10B501460869801E08617F
:10128000002805DC08690C3008614869401E486187
:101290006423486990FBF3F04A69D31702EB937318
:1012A000C0EBA3004FF4C87492FBF4F3034440F284
:1012B0006F14086960430C2490FBF4F01844CB6869
:1012C000034440F26D1402FB04303A4BC01A00EBA9
:1012D00040008B6803EBC000C0EB00104B6803EBD1
:1012E0008000C0EB00100B6803EB800010BD2DE9FF
:1012F000F04107460C463048B7FBF0F6B7FBF0F17B
:1013000000FB11784FF4616098FBF0F0A0604FF49F
:10131000616098FBF0F100FB11803C2190FBF1F043
:1013200060604FF4616098FBF0F100FB11803C219C
:1013300090FBF1F201FB1200206040F2B27509E06F
:1013400005F0030010B94FF4B77001E040F26D10E2
:10135000361A6D1C05F0030010B94FF4B77001E0A8
:1013600040F26D10B042EBDD65616069C11700EBC2
:1013700091718910A0EB810111B91D200F494860BE
:10138000012505E0681E0D4951F82000361A6D1C34
:10139000681E0A4951F82000B042F3DD1C20486065
:1013A0002561701CE0602046FFF71CFFBDE8F0815E
:1013B000147C00088BFA0A0080510100840100208F
:1013C00008B54FF4C06000F0BFFC03208DF80000AA
:1013D00001208DF8010000208DF8020001208DF819
:1013E0000300684600F0B5FC08BD10B501214FF0C0
:1013F000C05001F05AFC012001F081FA00F03AFFE0
:10140000012001F0CBFB00BF612001F016FB00289A
:10141000FAD04FF4007001F0C4FB012001F0C7FBCB
:1014200001F0FFFC01F0F4FC0121032001F094FC29
:1014300001F0EEFC49F63F4001F0C4FC01F0E8FC8D
:1014400010BD70B50446FFF7D0FF01F0E1FC204667
:10145000FFF7C8FE2046FFF70EFFA0F5E14528463E
:1014600001F0A3FC01F0D4FC70BD10B504460420CB
:1014700000F035FF4AF2A551884208D02046FFF718
:10148000E0FF4AF2A551042000F01DFF22E02046B3
:10149000FFF7D7FF01214FF0C05001F006FC0120FB
:1014A00001F02DFA012001F079FB00BF612001F06D
:1014B000C4FA0028FAD07B2001F0BFFA10B97A20D4
:1014C00001F0BBFA01F0ADFC0121032001F044FC66
:1014D00001F09EFC01F01AFC10BD70B50546002419
:1014E0000026F1A002F0EEFD00BFFD4802F0EAFD8B
:1014F00000F0D8FB0446FBA002F0E4FD40F2B2701D
:10150000844203D340F2F670844204D92146F6A007
:1015100002F0D8FD05E02146FCA002F0D3FD6C618D
:1015200000E0E2E700BF00BFFE4802F0CBFD00F0A4
:10153000B9FB04460CB10C2C04D92146EAA002F0F8
:10154000C1FD05E02146F8A002F0BCFD2C6100E0E1
:10155000EAE700BF28690D2832D2DFE800F0310742
:1015600014080F09100A0B110C120D0000BF00BF68
:1015700000BF00BF00BF00BF1F2621E000BF00BFAB
:1015800000BF1E261CE06869C11700EB917189102D
:10159000A0EB810191B96422696991FBF2F302FB2E
:1015A000131131B99200696991FBF2F302FB131137
:1015B00021B92969022901DD1D2600E01C2600BF92
:1015C00000BF00BF3146DE4802F07CFD00F06AFB40
:1015D00004460CB1B44204D92146C3A002F072FD06
:1015E00005E02146D7A002F06DFDEC6000E0E9E7E0
:1015F00000BF00BFD94802F065FD00F053FB044670
:10160000172C04D92146B8A002F05CFD05E0214664
:10161000D3A002F057FDAC6000E0EBE700BF00BFD5
:10162000D54802F04FFD00F03DFB04463B2C04D9A9
:101630002146ADA002F046FD05E02146CFA002F014
:1016400041FD6C6000E0EBE700BF00BFD14802F055
:1016500039FD00F027FB04463B2C04D92146A2A00B
:1016600002F030FD05E02146CBA002F02BFD2C60FE
:1016700000E0EBE700BF70BDF0B5B9B005460C4621
:1016800005F5E14621463046FFF731FEA06818B95E
:10169000606808B9206818B1C548006800282CD0D7
:1016A000227B217CA38A98B207ABFFF7E6FA9DF86C
:1016B0001F0000909DF81E309DF81D209DF81C1005
:1016C000BCA002F0FFFC227B217CA38A98B207AB6E
:1016D000FFF7F8FB07A9C0A002F0F4FC227B217CF5
:1016E000A38A98B207ABFFF7D0FC18B107A9BAA03C
:1016F00002F0E8FC0020AE4908606069C01E0C21C1
:1017000090FBF1F201FB1200B84951F82070DFF8AC
:10171000E0C2A3695CF8233094E80700CDE9023207
:10172000CDE90410D4E90310CDE900013B46294678
:10173000B048626902F0C6FC39B0F0BD04460CE066
:10174000AD480068012808D101F026FB0546214676
:10175000FFF792FF0020A8490860F1E730B587B095
:101760000446254600202871E871A8726873287421
:10177000284602F0C9FD0590681D02F0C5FD0490E1
:1017800005F1080002F0C0FD039005F10B0002F026
:10179000BBFD029005F10E0002F0B6FD019005F1CF
:1017A000110002F0B1FD009001F032FB00BF0120FA
:1017B00001F049FB0028FAD06846FFF742FE01F02D
:1017C00027FB07B030BD2DE9F04788B004460F462F
:1017D0000020A0706071204602F096FDC5B2E01CAA
:1017E00002F092FDC6B2601D02F08EFD00F0FF080F
:1017F00001F0D2FA00F5E14A01A95046FFF777FD62
:101800000398A84200DA26E00398A84203D1029880
:10181000B04200DA1FE00298B04203D1019840457F
:1018200000DA18E001A8FFF726FD744900EB010972
:1018300001A94846FFF75BFD03950296CDF80480A9
:1018400001A8FFF718FDA0F5E1406D4941F8270018
:1018500008B0BDE8F08703950296CDF8048001A892
:10186000FFF709FDA0F5E140654941F8270000BFF9
:10187000EEE710B501F090FA00F5E14400200EE02B
:1018800007E05F4951F820105C4A11445C4A42F875
:1018900020105B4951F82010A142F2D3401C0328CC
:1018A000EEDB57480068ADE00D0A3D3D3D3D3D3D56
:1018B0003D3D3D3D3D3D3D3D3D3D3D3D3D3D3D3D58
:1018C0003D3D3DC9E8D6C3CAB1BCE43D3D3D3D3DCB
:1018D0003D3D3D3D3D3D3D3D3D3D3D3D3D000000EF
:1018E000DC7F00084F4B33000D0A20C4FACAE4C85D
:1018F000EBB5C4CAFDD7D6CAC73A2564A3ACB2BB00
:10190000B7FBBACFD2AAC7F3000000000A0D20200F
:10191000C4EAB7DDB1BBC9E8D6C3CEAA3A20256474
:101920000A0D0000547F00080A0D2020D4C2B7DD44
:10193000B1BBC9E8D6C3CEAA3A2025640A0D00007F
:10194000AC8000080A0D2020C8D5C6DAB1BBC9E8B2
:10195000D6C3CEAA3A2025640A0D0000987F00085D
:101960000A0D2020CAB1D6D3B1BBC9E8D6C3CEAACE
:101970003A2025640A0D0000688000080A0D202026
:10198000B7D6D6D3B1BBC9E8D6C3CEAA3A20256410
:101990000A0D0000248000080A0D2020C3EBD6D3D6
:1019A000B1BBC9E8D6C3CEAA3A2025640A0D00000F
:1019B000540200200D0A20BDF1CCECD0C2C0FAA325
:1019C000BA25302E326425302E32642C25302E324A
:1019D000642C25302E3264000D0A20BDF1CCECC5FC
:1019E000A9C0FAA3BA25730D0A000000D80100208F
:1019F000BC010020047F0008B401002080510100D8
:101A0000640000201849496888420ED216480068D0
:101A100015498968884203D213481449086013E0C5
:101A200011480830114908600EE00F4840680E491F
:101A30008968884204D20C48001D0C49086003E004
:101A4000094808300949086008490968086801F030
:101A5000C7F901F0DDF910BD4FF0FF300249086011
:101A6000486088607047000064000020700000201B
:101A700008B54FF4E06000F067F91C208DF8000015
:101A800002208DF8010003208DF8020001208DF85E
:101A90000300684600F05DF908BD0EB50121084657
:101AA00001F003F940F2E730ADF804004720ADF84B
:101AB00000000020ADF80600ADF802008DF8080027
:101AC00069464FF0804001F0BFFA0121880702F01B
:101AD000DDF801221146900701F02DFE0121880753
:101AE00001F00EFE0EBD10B5FFF7C2FFFFF7D5FFE8
:101AF00010BD000008B54FF4A06000F025F92520C6
:101B00008DF8000001208DF801008DF802008DF89D
:101B10000300684600F01DF908BD00B585B001213D
:101B2000042001F0B5F80121880301F0B1F84FF469
:101B30000070ADF8100018208DF8130003208DF808
:101B4000120004A9664800F081FD4FF48060ADF8F2
:101B5000100004208DF8130004A9614800F076FD00
:101B60004FF4E13000900020ADF80400ADF806001D
:101B7000ADF80800ADF80C000C20ADF80A0069467D
:101B8000584802F0DEF8FFF7B5FF012240F2244189
:101B9000544802F06EF9012240F22551514802F0FA
:101BA00068F901214F4802F058F905B000BD70B541
:101BB00004460D46E1B24B4802F0BCF900BF80215B
:101BC000484802F025FA0028F9D0204670BD10B52B
:101BD000044600BF2021434802F01AFA0028F9D039
:101BE000404802F0ABF910BD2DE9F04F87B08146B7
:101BF000002400200690059000210D460E46484620
:101C000002F0A1FB049000BF42E019F804002E2866
:101C100003D101200590069438E0059808B3069991
:101C2000601A05F0A7F802460B46CDE90001002036
:101C30002D4904F01BF90746884619F80410A1F154
:101C4000300005F097F83A464346CDE9020104F02A
:101C500039FF82462A46334604F078FE05460E4692
:101C600014E00022204B2846314605F0D7F80746FD
:101C7000884619F80410A1F1300005F07BF882467F
:101C80003A46434604F062FE05460E46601C84B2A6
:101C900004988442B9DB2846314604F025FE07B09B
:101CA000BDE8F08F10B50DE010480078012809D18B
:101CB00000200E4908700E490E4A128888540D49BA
:101CC000088000E0F0E700BF09490BA002F0FAF934
:101CD0000748FFF789FF044605F0AAFC10BD000085
:101CE0000008014000380140000024400E000020A0
:101CF000780200200C00002061527842756666650B
:101D0000723D25730A0000000948804709480047D2
:101D1000FEE7FEE7FEE7FEE7FEE7FEE7FEE7FEE79B
:101D2000FEE7FEE704480549054A064B70470000F8
:101D300037060008ED00000868050020680B002049
:101D4000680700206807002031490143314A1160CB
:101D5000704770B5002100230F22C47804B32D4CC6
:101D6000246804F4E064C4F5E064210AC1F10403CA
:101D7000CA40447804FA03F18478144021430901ED
:101D8000254C0678A155047804F01F050124AC40C9
:101D900005786D11AD0005F1E025C5F8004109E0B9
:101DA000047804F01F050124AC401C4D0678761120
:101DB00045F8264070BD1A4A0A400243154B1B1FC6
:101DC0001A60704739B1134A121D12680243114B51
:101DD0001B1D1A6006E00F4A121D126882430D4B4C
:101DE0001B1D1A607047042808D14FF0E0210969D3
:101DF00041F004014FF0E022116107E04FF0E021D3
:101E0000096921F004014FF0E022116170470000E0
:101E10000000FA050CED00E000E400E080E100E0E5
:101E200080FFFF1F10B50446FA48844208D1012103
:101E3000401500F047FF0021601500F043FF17E058
:101E4000F548844208D10121001500F03BFF002134
:101E5000201500F037FF0BE0F048844208D1012143
:101E6000C80300F02FFF00214FF4004000F02AFFCC
:101E700010BD30B50246002000235068E84C2040D9
:101E80000D790C6844EA0524204350609068E54CC5
:101E90002040D1E902542C434D7944EA45042043C3
:101EA0009060D06A20F470000C7C641EE4B223437E
:101EB00040EA0350D06230BD0021016001714171E0
:101EC0008160C16001210174704721B1826842F0D4
:101ED0000102826003E0826822F0010282607047A2
:101EE00021B1826842F48072826003E0826822F449
:101EF00080728260704710B50023CBB21AB144687B
:101F00001C43446002E044689C43446010BD816807
:101F100041F0080181607047014600208A6802F0A4
:101F200008020AB1012000E000207047816841F0FA
:101F3000040181607047014600208A6802F00402B3
:101F40000AB1012000E00020704721B1826842F40C
:101F5000A002826003E0826822F4A00282607047DF
:101F6000014600208A6802F480020AB1012000E0E4
:101F70000020704710B50A4600210023416821F473
:101F80006041531E41EA4331416010BD21B14268B6
:101F900042F40062426003E0426822F40062426060
:101FA0007047F0B504460D4600200021092D11DDD3
:101FB000E068A5F10A0606EB4607072606FA07F1D0
:101FC0008843A5F10A0606EB460603FA06F1084324
:101FD000E0600CE0206905EB4507072606FA07F1EB
:101FE000884305EB450603FA06F108432061072AFA
:101FF0000FDA606B561E06EB86071F2606FA07F1FE
:102000008843561E06EB860605FA06F10843606310
:1020100022E00D2A0FDA206BD61F06EB86071F265B
:1020200006FA07F18843D61F06EB860605FA06F185
:102030000843206310E0E06AA2F10D0606EB860774
:102040001F2606FA07F18843A2F10D0606EB860665
:1020500005FA06F10843E062F0BD21B1826842F45E
:102060008012826003E0826822F4801282607047EE
:102070000146C86C80B2704766484C3000687047B3
:1020800021B1426842F48062426003E0426822F477
:1020900080624260704721B1426842F480524260DF
:1020A00003E0426822F48052426070470A460021F1
:1020B000816821F4E04111438160704721B1826859
:1020C00042F40042826003E0826822F400428260AF
:1020D000704721B1826842F40212826003E0826894
:1020E00022F4021282607047014600208A6802F4DE
:1020F00000120AB1012000E000207047F0B504464C
:102100001546002000220026092911DDE068A1F112
:102110000A0707EB470C072707FA0CF29043A1F1D7
:102120000A0707EB470703FA07F21043E0600CE0E9
:10213000206901EB410C072707FA0CF2904301EBF1
:10214000410703FA07F210432061A06BC0F3015668
:10215000EF1C06F1010CA7EB0C0707EB870C1F2700
:1021600007FA0CF29043EF1C06F1010CA7EB0C07E9
:1021700007EB870701FA07F21043A063F0BD10B523
:102180000A4600210023816B21F44011531E41EACD
:102190000351816310BD08B5002300930090009B9C
:1021A0000B440093009B1A6008BD08B5024600204E
:1021B0000090009201F12800009B184400900098C4
:1021C000006880B208BD0A4600214168164B1940DC
:1021D0001143416070474162826270470A460021A4
:1021E000416821F01F0111434160704740B1094926
:1021F0000831096841F40001064A0832116007E01D
:1022000004490831096821F40001024A08321160CA
:10221000704700000024014000280140003C0140BC
:10222000FFFEF0FFFDF7F1FFFFFD3FFF024600203C
:1022300013680B400BB1012000E000207047CA4337
:102240000260704770B502460020002300240B1284
:102250005568CEB205EA060415681D4015B10CB1EB
:10226000012000E0002070BD00220A12D343036069
:102270007047000010B5012000F03EFD002000F086
:102280003BFD10BD2A49086070472949091F0860B5
:102290007047274984310860704701460020254A6D
:1022A00010884FF67F4210400843224A1080704742
:1022B000014600201F4A10884FF6807210400843E4
:1022C0001C4A1080704708B500220092194A2C3A27
:1022D0000092009A02440092009A116008BD08B56D
:1022E00001460020009013482C38009000980844C4
:1022F00000900098008808BD0D489C300068C0B26E
:1023000070470C480830008840F001000949083146
:10231000088070470648A0300068C0B27047054882
:102320000830008840F002000249083108807047F8
:1023300004860D422C6C004001684FF6FE7211407D
:1023400001600021016041608160C1608D49884267
:1023500008D18C490839496841F00F01894A083A87
:1023600051608AE087491431884208D1854908398B
:10237000496841F0F001834A083A51607DE08149A3
:102380002831884208D17F490839496841F4706191
:102390007C4A083A516070E07A493C31884208D161
:1023A00078490839496841F47041764A083A5160E1
:1023B00063E074495031884208D17249083949684C
:1023C00041F470216F4A083A516056E06D4964311A
:1023D000884208D16B490839496841F47001694A5B
:1023E000083A516049E067497831884208D1654927
:1023F0000839496841F07061624A083A51603CE02E
:102400006149884206D1011F096841F00F01021F8E
:10241000116032E05C491431884208D15A49091FE1
:10242000096841F0F001584A121F116025E0564931
:102430002831884208D15449091F096841F4706164
:10244000514A121F116018E04F493C31884208D1AF
:102450004D49091F096841F470414B4A121F116030
:102460000BE049495031884207D14749091F0968A3
:1024700041F47021444A121F1160704710B50022C8
:10248000026847F6F0739A430C6A8B6823430C6921
:1024900023434C6923438C692343CC6923434C6A0F
:1024A00023438C6A23431A430260CB6843600B6862
:1024B00083604B68C36010BD002101604160816092
:1024C000C160016141618161C161016241628162FA
:1024D000704721B1026842F00102026004E0026824
:1024E0004FF6FE731A40026070471AB103680B433F
:1024F000036002E003688B430360704741607047EC
:102500000146486880B2704701460020002201F071
:1025100080531BB11C4B083B1A6802E0194B083B67
:102520001A6802EA01030BB1012000E000207047A5
:1025300000F0805119B11449091F086002E01149E7
:1025400008394860704701460020002201F080539E
:102550001BB10D4B083B1A6802E00A4B083B1A6896
:1025600002EA01030BB1012000E00020704700F0F7
:10257000805119B10449091F086002E00149083976
:1025800048607047080002400804024010B5044645
:10259000CC48844208D10121042000F093FB0021A3
:1025A000042000F08FFB46E0C748844208D1012197
:1025B000082000F087FB0021082000F083FB3AE0B0
:1025C000C248844208D10121102000F07BFB002189
:1025D000102000F077FB2EE0BD48844208D1012195
:1025E000202000F06FFB0021202000F06BFB22E098
:1025F000B848844208D10121402000F063FB00214B
:10260000402000F05FFB16E0B348844208D101216E
:10261000802000F057FB0021802000F053FB0AE0EF
:10262000AE48844207D10121801500F04BFB002108
:10263000A01500F047FB10BD10B50121084600F0C1
:1026400041FB0021012000F03DFB10BD2DE9F041D0
:10265000024600250026002000230024002791F8D0
:1026600003C00CF00F0591F803C00CF0100CBCF186
:10267000000F03D091F802C04CEA050591F800C0A4
:10268000BCF1000F31D0146800202BE04FF0010C9A
:102690000CFA00F3B1F800C00CEA03069E4220D108
:1026A00083004FF00F0C0CFA03F7BC4305FA03FC50
:1026B0004CEA040491F803C0BCF1280F06D14FF096
:1026C000010C0CFA00FCC2F814C00AE091F803C037
:1026D000BCF1480F05D14FF0010C0CFA00FCC2F818
:1026E00010C0401C0828D1D31460B1F800C0BCF160
:1026F000FF0F34DD546800202EE000F1080C4FF08D
:10270000010808FA0CF3B1F800C00CEA03069E4277
:1027100021D183004FF00F0C0CFA03F7BC4305FAEC
:1027200003FC4CEA040491F803C0BCF1280F05D166
:1027300000F1080C08FA0CF8C2F8148091F803C0F4
:10274000BCF1480F07D100F1080C4FF0010808FA5E
:102750000CF8C2F81080401C0828CED35460BDE8A5
:10276000F0814FF6FF710180022181700421C17058
:1027700070470246002093680B400BB1012000E037
:10278000002070470146886880B2704702460020EA
:10279000D3680B400BB1012000E0002070470146D8
:1027A000C86880B2704701617047416170470AB1E3
:1027B000016100E041617047C16070474FF48032B1
:1027C0000A4382618161826182698269704702463F
:1027D0000020434B18684FF68073184040EA0210FF
:1027E00008433F4B186070473E49C8617047F0B5D9
:1027F0000A46002300240021002500F00046B6F11F
:10280000004F02D1364EF16901E0354E7168C0F3D8
:10281000034583B200F44016B6F5401F08D121F0FD
:1028200070612F4E766826F070662D4F7E6012E044
:1028300000F48016B6F5801F06D1032606FA05F4CB
:10284000A14341F0706106E0460D360103FA06F639
:10285000B14341F0706122B1460D360103FA06F62C
:10286000314300F00046B6F1004F02D11C4EF16139
:1028700001E01B4E7160F0BD30B500228B071C0FCC
:102880000F2303FA04F2164B08338C1053F824304C
:102890009343134C08348D1044F8253023468C1094
:1028A00053F824308C07240F00FA04F423430C4C13
:1028B00008348D1044F8253030BD0A49DC310860F9
:1028C0007047000000080140000C0140001001406A
:1028D0000014014000180140001C0140002001408C
:1028E000000001400000204210B50121080700F05F
:1028F000F6F900214FF0805000F0F1F910BD2A499F
:102900000862704728490861704701460020274A3D
:10291000106820F0E0000843106070472249A031A1
:102920000860704710B502460020204B186820F060
:102930000300104318601E4B1B6843F004031C4C3B
:102940002360012901D130BF00E020BF184B1B6874
:1029500023F00403164C236010BD1448006840F0B7
:102960000400124908600846006840F00200086050
:102970000F48006840F004000D49086000BF00BF28
:1029800030BF704701460020084A52680A400AB129
:10299000012000E0002070470449096841EA8001F5
:1029A000024A11607047000000000E4200700040B3
:1029B00010ED00E0DF48006840F00100DD490860EC
:1029C00008464068DC490840DA4948600846006823
:1029D000DA490840D74908600846006820F480209A
:1029E00008600846406820F4FE0048604FF41F006D
:1029F00088607047CF49096821F48031CD4A116061
:102A00001146096821F480211160B0F5803F03D0A0
:102A1000B0F5802F0ED106E0C649096841F4803137
:102A2000C44A116007E0C349096841F4A021C14AC2
:102A3000116000E000BF00BF704710B501460022E2
:102A4000002300204A11012A02D1BA4C236806E073
:102A5000022A02D1B74C236A01E0B64C636A01F046
:102A60001F02012494401C400CB1012000E0002012
:102A700010BD38B5002000900024002500BF312093
:102A8000FFF7DBFF05460098401C00900098B0F56A
:102A9000A06F01D0002DF2D03120FFF7CEFF08B19A
:102AA000012400E00024204638BD01460020A14A50
:102AB000106820F0F80040EAC10010607047A0499B
:102AC00008607047024600209A4B586820F47C103A
:102AD00042EA01031843974B5860704798490866CB
:102AE000704701460020934A506820F003000843D5
:102AF000506070478F48406800F00C0070470146F6
:102B000000208C4A506820F0F00008435060704765
:102B100001460020874A506820F4E0600843506076
:102B2000704701460020834A506820F4605040EA14
:102B3000C1005060704729B17E4A527A02437D4BF2
:102B40005A7204E07B4A527A82437A4B5A72704737
:102B50007B49D8310860704701460020754A5068AB
:102B600020F440400843506070470021714A2032F1
:102B70001170704A82F82010012802D004280AD16E
:102B800004E001216B4A2032117005E00521694AF9
:102B90002032117000E000BF00BF70476949086033
:102BA00070476449096A0143624A11627047654986
:102BB00044390860704730B500210022002400230A
:102BC0005C4D6D6805F00C0121B1042905D0082980
:102BD00023D105E05C4D056022E05B4D05601FE000
:102BE000544D6D6805F47012524D6D6805F48034D3
:102BF000022505EB92421CB9544D554305600BE08C
:102C00004C4D6D6805F400351DB1504D55430560C0
:102C100002E04D4D5543056002E04B4D056000BF9D
:102C200000BF444D6D6805F0F0010909484D6B5C2B
:102C30000568DD4045603F4D6D6805F4E061090AB7
:102C4000434D6B5C4568DD4085603A4D6D6805F429
:102C50006051C90A3E4D6B5C4568DD40C560354D2D
:102C60006D6805F44041890B3A4D6B5CC568B5FB56
:102C7000F3F5056130BD29B12E4A526902432D4B4F
:102C80005A6104E02B4A526982432A4B5A617047C9
:102C900029B1284A92690243264B9A6104E0254AE9
:102CA00092698243234B9A61704729B1214AD269C4
:102CB0000243204BDA6104E01E4AD26982431D4B75
:102CC000DA61704729B11B4AD2680243194BDA60B6
:102CD00004E0184AD2688243164BDA60704729B183
:102CE000144A12690243134B1A6104E0114A126933
:102CF0008243104B1A61704712494039086070478F
:102D00000F49C86470470B49C87170470948406A49
:102D100040F0807007494862704701460020054A2C
:102D200092680A400AB1012000E000207047014982
:102D300088727047001002400000FFF8FFFFF6FEA7
:102D4000000042428004424200127A0000093D0025
:102D5000580200206802002029B1504A128802431C
:102D60004E4B1A8004E04D4A128882434B4B1A8026
:102D700070474A48001D008840F010004749091D6F
:102D8000088070474548001D00884FF6EF710840E5
:102D90004249091D08807047002140481C300188C5
:102DA000001F008841EA0040704700B50246FFF767
:102DB000E0FF100C394918310880091D0A80FFF71F
:102DC000E1FF00BD00B50246FFF7D3FFC2F30340A9
:102DD000324908310880091D0A80FFF7D3FF00BD82
:102DE00000B50246FFF7C5FF100C2C4920310880C2
:102DF000091D0A80FFF7C6FF00BD002027491031DA
:102E000009880907080B25491431098808437047C8
:102E100000BF2248001D008800F020000028F8D0E4
:102E200070471E48001D00884FF6F77108401B4987
:102E3000091D088000BF1948001D008800F0080027
:102E40000028F8D0704701460020144A121D12884D
:102E50000A400AB1012000E0002070470F49091D17
:102E6000098881430D4A121D1180704701460020D8
:102E70000A4A121D12880A40D0B2084A12880A4033
:102E800012B108B1012000E0002070470349091D7C
:102E900009888143014A121D1180704700280040B3
:102EA00010B50446FE48844208D10121C014FFF742
:102EB00009FF0021E014FFF705FFC4E0B4F1804FE3
:102EC00008D101210846FFF70AFF00210120FFF782
:102ED00006FFB8E0F348844208D101210220FFF741
:102EE000FEFE00210220FFF7FAFEACE0EE4884422D
:102EF00008D101210420FFF7F2FE00210420FFF792
:102F0000EEFEA0E0E948844208D101210820FFF745
:102F1000E6FE00210820FFF7E2FE94E0E448844248
:102F200008D101211020FFF7DAFE00211020FFF761
:102F3000D6FE88E0DF48844208D101212020FFF737
:102F4000CEFE00212020FFF7CAFE7CE0DA48844252
:102F500008D101214014FFF7B5FE00216014FFF7EE
:102F6000B1FE70E0D548844209D10121C804FFF7C1
:102F7000A9FE00214FF40020FFF7A4FE63E0D04833
:102F8000844209D101210805FFF79CFE00214FF47E
:102F90008010FFF797FE56E0CA48844209D101210C
:102FA0004805FFF78FFE00214FF40010FFF78AFE5F
:102FB00049E0C548844208D101214020FFF78FFE37
:102FC00000214020FFF78BFE3DE0C048844208D13D
:102FD00001218020FFF783FE00218020FFF77FFE84
:102FE00031E0BB48844208D101218015FFF777FE0C
:102FF0000021A015FFF773FE25E0B648844209D1F1
:1030000001210804FFF75EFE00214FF48030FFF736
:1030100059FE18E0B048844209D101214804FFF765
:1030200051FE00214FF40030FFF74CFE0BE0AB489F
:10303000844208D101218804FFF744FE00214FF4A7
:103040008020FFF73FFE10BD00220288944B98427B
:103050000ED0994B98420BD0B0F1804F08D0914BD5
:10306000984205D0904B984202D0904B984204D1A0
:103070004FF68F731A404B881A438D4B984207D0F6
:103080008C4B984204D04FF6FF431A40CB881A432A
:1030900002808B8883850B880385814B98420BD0F7
:1030A000854B984208D08B4B984205D08A4B98426A
:1030B00002D08A4B984201D10B7A03860123838286
:1030C000704770B5002400220023058C4FF6FE7671
:1030D00035400584028C8388048B4FF68F752C4015
:1030E000B51E2C400D882C43751E2A400D892A439D
:1030F0004D882A436A4DA8420BD06F4DA84208D094
:10310000744DA84205D0744DA84202D0734DA84218
:1031100013D14FF6F7752A404D892A434FF6FB75B8
:103120002A408D882A434FF6FF652B404FF6FF5506
:103130002B408D892B43CD892B4383800483CD88FD
:103140008586028470BD70B5002400220023058CA2
:103150004FF6EF7635400584028C8388048B48F661
:10316000FF752C404FF6FF452C400D884FF6FF763B
:1031700006EA05252C434FF6DF752A400D8906EA3D
:1031800005152A434D8806EA05152A43444DA842F1
:1031900002D0494DA8421DD14FF67F752A404D8976
:1031A0004FF6FF7606EA05152A434FF6BF752A400B
:1031B0008D8806EA05152A434FF6FF352B404FF25E
:1031C000FF752B408D8906EA85052B43CD8906EADC
:1031D00085052B4383800483CD880587028470BDD9
:1031E00070B5002400220023058C4FF6FF663540A1
:1031F0000584028C8388848B4FF68F752C404FF6A4
:10320000FC752C400D882C434FF6FF552A400D8944
:103210004FF6FF7606EA05252A434D8806EA05257E
:103220002A431F4DA84202D0234DA8421DD14FF280
:10323000FF752A404D894FF6FF7606EA05252A4399
:103240004FF6FF352A408D8806EA05252A434EF6BB
:10325000FF752B404DF6FF752B408D8906EA05154D
:103260002B43CD8906EA05152B4383808483CD88C3
:103270008587028470BD70B5002200230024058C70
:103280004EF6FF7635400584038C8488828B48F6A1
:10329000FF752A404FF6FF452A400D8820E00000C8
:1032A000002C01400004004000080040000C0040D9
:1032B000001000400014004000340140004C014068
:1032C000005001400054014000180040001C004024
:1032D00000200040004001400044014000480140FF
:1032E0004FF6FF7606EA05252A434DF6FF752B407B
:1032F0000D8906EA05352B434D8806EA05352B4333
:10330000FA4DA84202D0FA4DA84208D14BF6FF75FB
:103310002C408D894FF6FF7606EA85152C43848074
:103320008283CD88A0F84050038470BD828B4FF219
:10333000FF331A408283828B4FF6FF7303EA012327
:103340001A4382837047F0B50C46154600220021CF
:103350000026078C4EF6FF7C07EA0C070784828B59
:10336000018C4FF6FF7707EA043640F6FF473A40F4
:103370004FF6FF7707EA05273A434FF6FF7707EA4C
:1033800003373A43D94FB8420ED0D94FB8420BD089
:10339000B0F1804F08D0D74FB84205D0D64FB842D1
:1033A00002D0D64FB84206D14DF6FF77394046F4E9
:1033B0008057394305E047F6FF57394044F48057BA
:1033C000394382830184F0BD828B4FF6F3731A4038
:1033D0008283828B0A4382837047F0B50C46154680
:1033E000002200210026078C4FF6FF6C07EA0C072D
:1033F0000784828B018C4FF6FF7707EA04264FF68D
:103400000C773A404FF6FF7707EA03172F433A430A
:10341000B64FB8420ED0B64FB8420BD0B0F1804F85
:1034200008D0B44FB84205D0B34FB84202D0B34F22
:10343000B84206D14FF6FF57394046F480773943FA
:1034400005E04FF2FF57394044F4807739438283D7
:103450000184F0BD028B4FF2FF331A400283028BCE
:103460004FF6FF7303EA01231A4302837047F0B556
:103470000C461546002200210026078C4FF6EF7CF3
:1034800007EA0C070784028B018C4FF6FF7707EAE7
:10349000041640F6FF473A404FF6FF7707EA033736
:1034A0003A434FF6FF7707EA05273A438F4FB84272
:1034B0000ED08F4FB8420BD0B0F1804F08D08D4F57
:1034C000B84205D08C4FB84202D08C4FB84206D1DA
:1034D0004FF6DF77394046F01007394305E04FF6E5
:1034E0005F77394044F01007394302830184F0BD0F
:1034F000028B4FF6F3731A400283028B0A43028356
:103500007047F0B50C46154600220021068C4FF698
:10351000FE773E400684028B018C4FF60C763240DB
:103520007E1C06EA03162E433243704EB0420ED084
:103530006F4EB0420BD0B0F1804F08D06D4EB0420C
:1035400005D06D4EB04202D06C4EB04206D14FF65F
:10355000FD76314044F00106314305E04FF6F57643
:10356000314044F00106314302830184F0BD70B55F
:1035700005460C465D4885420ED05D4885420BD01D
:10358000B5F1804F08D05B48854205D05A48854246
:1035900002D05A48854200D100E000BF208850B9CF
:1035A0002389A28861882846FFF7ABFFE188284677
:1035B000FFF79EFF25E0208804280AD12389A288EE
:1035C00061882846FFF753FFE1882846FFF742FF4E
:1035D00017E0208808280AD12389A2886188284614
:1035E000FFF7FBFEE1882846FFF7EEFE09E023899E
:1035F000A28861882846FFF7A6FEE1882846FFF7E3
:1036000095FE70BD2DE9F04105460C4600260127C8
:10361000608808B9022600E00026A088012801D1B0
:10362000022700E001272088A0B92389A2886188A9
:103630002846FFF766FFE1882846FFF759FF2389F0
:103640003A4631462846FFF712FFE1882846FFF741
:1036500001FF13E02389A28861882846FFF707FF4E
:10366000E1882846FFF7F6FE23893A463146284688
:10367000FFF747FFE1882846FFF73AFFBDE8F081F2
:103680000A884B881A438B881A43CB881A430B89C4
:103690001A434B891A438B891A43A0F84420704778
:1036A0004FF6FF71818000210180C180418001724D
:1036B00070470021018041808180C180018141816A
:1036C0008181C18170470021018041800121818079
:1036D0000021C180018170470021018041808180EB
:1036E000C18001814181818170470000002C01402F
:1036F000003401400004004000080040000C00407D
:1037000021B1028842F00102028004E002884FF6F3
:10371000FE731A400280704731B1B0F8442042F481
:103720000042A0F8442005E0B0F84420C2F30E02A5
:10373000A0F8442070471AB183890B43838102E0CB
:1037400083898B43838170478182704741EA0203FA
:10375000A0F8483070471AB183890B43838102E097
:1037600083898B438381704701894FF6F87211403A
:10377000018170470A46002101894FF68F73194075
:1037800011430181704730B504460D462946204655
:10379000FFF7F0FF208940F00700208130BD2DE9C0
:1037A000F04104460D4616461F46602D06D13B46A5
:1037B000012231462046FFF75AFE05E03B46012232
:1037C00031462046FFF79DFE29462046FFF7D2FFEF
:1037D000208940F007002081BDE8F08130B50C461B
:1037E00000210189C9B24FF6FF7505EA032515438B
:1037F00025432943018130BD2DE9F04105460E46A0
:1038000017469846002443463A4631462846FFF775
:10381000E5FF2C894FF6F870044044F007044FF69A
:103820008F70044044F070042C81BDE8F081F0B545
:1038300004460D4616461F463B463246294620465C
:10384000FFF7CCFF208940F480402081F0BD018546
:10385000828270470A46002101884FF68F73194013
:10386000114301807047F0B50C4615461E460021F5
:10387000002200230189028B038C4FF6F877394030
:1038800021434FF6FC473A4040F201173A434FF6C6
:10389000DD773B404FF6FF7707EA06172F433B43A0
:1038A000018102830384F0BD0A460021018B4FF69B
:1038B0008F7319401143018370470A460021018B21
:1038C00048F6FF7319404FF6FF7303EA02231943CA
:1038D000018370470A460021818B4FF68F73194090
:1038E0001143818370470A460021818B48F6FF739C
:1038F00019404FF6FF7303EA02231943818370478F
:1039000021B1028842F08002028004E002884FF672
:103910007F731A400280704721B1828842F004020E
:10392000828004E082884FF6FB731A4082807047E1
:1039300021B1828842F00802828004E082884FF63A
:10394000F7731A408280704721B1828842F00102E9
:10395000828004E082884FF6FE731A4082807047AE
:103960000A460021018B4FF6F7731940114301837A
:1039700070470A460021018B4FF2FF7319404FF642
:10398000FF7303EA02231943018370470A460021AB
:10399000818B4FF6F77319401143818370470A46B4
:1039A0000021818B4FF2FF7319404FF6FF7303EA3A
:1039B00002231943818370470A460021018B4FF689
:1039C000FB7319401143018370470A460021018BA4
:1039D0004FF6FF3319404FF6FF7303EA02231943F2
:1039E000018370470A460021818B4FF6FB73194013
:1039F0001143818370470A460021818B4FF6FF33C4
:103A000019404FF6FF7303EA02231943818370477D
:103A10000A460021018B4FF67F7319401143018341
:103A200070470A460021018BC1F30E014FF6FF7368
:103A300003EA02231943018370470A460021818B60
:103A40004FF67F7319401143818370470A46002166
:103A5000818BC1F30E014FF6FF7303EA0223194372
:103A6000818370470A460021018C4FF6FD7319408F
:103A70001143018470470A460021018C4FF6F77309
:103A800019401143018470470A460021018C4FF60A
:103A9000DF7319404FF6FF7303EA021319430184E1
:103AA00070470A460021018C4FF67F7319404FF68C
:103AB000FF7303EA02131943018470470A46002189
:103AC000018C4FF6FF5319404FF6FF7303EA0223B0
:103AD0001943018470470A460021018C4FF2FF739D
:103AE00019404FF6FF7303EA02231943018470471C
:103AF0000A460021018C4DF6FF7319404FF6FF7303
:103B000003EA023319430184704730B500230124CE
:103B10008C40A3B2048C9C430484048C02FA01F50B
:103B2000ADB22C43048430BD30B5002304248C4056
:103B3000A3B2048C9C430484048C02FA01F5ADB258
:103B40002C43048430BD70B5034600200024184681
:103B5000183001258D40ACB21D8CA5431D8409B1E0
:103B6000082909D100EB6100056825F070050560A2
:103B70000568154305600EE00D1FC5F34E0528448A
:103B8000056825F4E045056005684FF6FF7606EA0E
:103B900002263543056070BD21B1028842F0020261
:103BA000028004E002884FF6FD731A4002807047DD
:103BB00021B1028842F00402028004E002884FF63C
:103BC000FB731A400280704721B1828842F0800264
:103BD000828004E082884FF67F731A4082807047AB
:103BE00002884FF6F7731A40028002880A43028067
:103BF000704782884FF68F731A40828082880A430A
:103C00008280704702894FF6F8731A400281028958
:103C10000A430281704702894FF67F731A4002817E
:103C200002890A4302817047818470478185704709
:103C3000818670470187704781877047A0F84010E0
:103C4000704702884FF6FF431A40028002880A43F9
:103C5000028070470146888E70470146088F704782
:103C60000146888F70470146B1F840007047014611
:103C7000888C70470146088D704702460020138AE1
:103C80000B400BB1012000E000207047CA430282C4
:103C9000704730B50246002000230024158A05EA4B
:103CA0000103958905EA010413B10CB1012000E07C
:103CB000002030BDCA4302827047000010B50446A0
:103CC000FB48844209D101218803FEF7FBFF002154
:103CD0004FF48040FEF7F6FF32E0F648844209D107
:103CE00001214804FEF7FBFF00214FF40030FEF7EE
:103CF000F6FF25E0F048844209D101218804FEF74F
:103D0000EEFF00214FF48020FEF7E9FF18E0EB48BA
:103D1000844209D10121C804FEF7E1FF00214FF4DC
:103D20000020FEF7DCFF0BE0E548844208D10121CA
:103D30000805FEF7D4FF00214FF48010FEF7CFFFF7
:103D400010BD2DE9F04786B005460E460024A24678
:103D500000BFA1460027B08900B100BF2F462C8AC2
:103D60004CF6FF700440F08804432C82AC894EF678
:103D7000F3100440B0883189084371890843044333
:103D8000AC81AC8A4FF6FF400440B0890443AC825A
:103D900001A8FEF710FFC648874202D1DDF810A047
:103DA00001E0DDF80CA0A88900F4004040B10AEB66
:103DB000CA0000EB0A1031684900B0FBF1F807E0D7
:103DC0000AEBCA0000EB0A1031688900B0FBF1F879
:103DD0006420B8FBF0F004012009642101FB108984
:103DE000A88900F4004040B1322000EBC900B0FBCC
:103DF000F1F000F00700044308E0322000EB091066
:103E00006421B0FBF1F000F00F0004432C8106B0F8
:103E1000BDE8F0874FF41651016000218180C18018
:103E200001810C21418100218181704710B502463A
:103E30000020108A4FF2FF0318400B884C88234360
:103E40008C882343CC8823431843108210BD002163
:103E5000018041808180C180704721B1828942F414
:103E60000052828104E082894DF6FF731A408281FC
:103E70007047F0B50346002400260025002040F6D8
:103E80006A17B94200D100BF1846C1F3421401F0CD
:103E90001F06012707FA06F5012C01D10C3004E0BA
:103EA000022C01D1103000E014301AB107682F4302
:103EB000076002E00768AF430760F0BD1AB1838A6C
:103EC0000B43838202E0838A8B4383827047028A9A
:103ED0004FF6F0731A400282028A0A430282704748
:103EE00082894FF2FF731A40828182890A4382815C
:103EF000704721B1828942F00202828104E0828906
:103F00004FF6FD731A4082817047028A4FF6DF73C5
:103F10001A400282028A0A430282704721B1028A51
:103F200042F48042028204E0028A4BF6FF731A4098
:103F300002827047C1F30802828070470146888878
:103F4000C0F308007047818941F001018181704709
:103F5000028BD2B20283028B42EA012202837047B3
:103F6000028B02F47F420283028B0A430283704772
:103F700021B1828A42F02002828204E0828A4FF6D6
:103F8000DF731A408282704721B1828A42F01002A8
:103F9000828204E0828A4FF6EF731A408282704771
:103FA00021B1828A42F00802828204E0828A4FF6BE
:103FB000F7731A408282704721B1828942F400422D
:103FC000828103E08289C2F30E028281704721B1AF
:103FD000828A42F40062828204E0828A4FF2FF7396
:103FE0001A4082827047828A4FF6FB731A4082829F
:103FF000828A0A438282704721B1828A42F0020299
:10400000828204E0828A4FF6FD731A4082827047F2
:1040100002460020B1F5007F00D100BF13880B409D
:104020000BB1012000E00020704701F40072B2F5EE
:10403000007F00D100BFCA430280704770B50246BE
:10404000002400230025002040F66A16B14200D16A
:1040500000BFC1F3421501F01F03012606FA03F366
:10406000012D02D19689334006E0022D02D1168A35
:10407000334001E0968A33400C12012606FA04F41C
:104080001688344013B10CB1012000E0002070BD4F
:1040900010B50022002340F66A14A14200D100BFEF
:1040A0000A1201249440A3B2DC43048010BD000036
:1040B000003801400044004000480040004C0040EF
:1040C000005000400FB4044910B503AA029800F054
:1040D0006DFC10BC5DF814FB5C0400200FB41CB533
:1040E000074B06AA7B4469460090059800F02FFC18
:1040F0000020694600F03EFC1CBC5DF814FB00008B
:104100008D08000070B50C460546012A05D02878B8
:10411000800600D5EA69002302E0012305E05B1C6C
:10412000934202D2E05C0028F9D1A869E618C01ACF
:10413000A861286A184428622846AFF3008004E08A
:10414000D5E9012114F8010B9047B442F8D3284671
:10415000AFF3008070BD00002DE9F0410646002459
:1041600010687529314616A510D0AFF300800028DD
:1041700002DA404213A507E031688A0701D512A58B
:1041800002E0490704D511A5012401E0AFF3008046
:1041900000210A2206F1240709E0B0FBF2FCB0FB83
:1041A000F2F302FB1C00303078541846491C0028FA
:1041B000F3D123462A463046BDE8F04100F059B914
:1041C000000000002D0000002B0000002000000077
:1041D0002DE9F05F894604464FF0000ADFF824B16C
:1041E000FB44C0F820A02046E168884700287DD025
:1041F000252806D0D4E901219047206A401C20627E
:10420000F1E700255F462046E168884720280646FA
:1042100007DB312E05D2B81910F8200C08B1054380
:10422000F1E7A80701D525F00405C4F81CA0002774
:10423000C4F818A02A2E09D0304601F00FFE38B37A
:1042400004EB8708303EC8F8186019E059F8041BE1
:10425000204604EB87029161E1688847012F0646FA
:1042600018D1E069002820DA25F020051DE0D8F8F3
:10427000180000EB800006EB40003038C8F818004A
:104280002046E1688847064601F0E8FD0028EED1A7
:10429000012F0AD02E2E08D12046E16888477F1CC6
:1042A0000646022F45F02005C4DBA069002803DA8A
:1042B000404245F00105A061E80701D025F0100556
:1042C000A6B1A6F14100192802D8203645F40065B0
:1042D0004A463146204625604D46FBF761FF60B1F6
:1042E000012807D0ED1D25F0070000E007E000F1F0
:1042F000080978E705F1040975E730467AE7206A8E
:10430000BDE8F09F603A000070B5064600F0A2F8E4
:104310000468054630460A22002100F059FB2C6053
:1043200070BD30B505460B462A4613F8014B12F80E
:10433000010B08B1A042F8D01CB1002802D06D1CBE
:10434000F1E7284630BD10B5431C02E010F8011B10
:1043500071B18107FAD14FF0013202C88C1A8C4337
:1043600014EAC211F9D0C01A0A0603D0C01E10BD4B
:10437000C01A10BD0A0401D0801E10BD0902FCD075
:10438000401E10BD421E12F8013F002BFBD111F858
:10439000013B002B02F8013BF9D1704710B5203AE0
:1043A000C0F00B80B1E81850203AA0E81850B1E8EE
:1043B0001850A0E81850BFF4F5AF5FEA027C24BFA4
:1043C000B1E81850A0E8185044BF18C918C0BDE89B
:1043D00010405FEA827C24BF51F8043B40F8043B64
:1043E00008BF7047D20728BF31F8023B48BF11F819
:1043F000012B28BF20F8023B48BF00F8012B704773
:104400004FF0000200B5134694469646203922BF6D
:10441000A0E80C50A0E80C50B1F12001BFF4F7AFB8
:10442000090728BFA0E80C5048BF0CC05DF804EB9A
:10443000890028BF40F8042B08BF704748BF20F808
:10444000022B11F0804F18BF00F8012B7047704706
:1044500070477047004870470405002010B5FFF70B
:10446000F9FF006810BD10B50446FFF7F3FF0460C4
:1044700010BD2DE9F0470D4699469246044600F1DD
:1044800024080168880604D5E06921F01001216044
:1044900000E00120A84201DD471B00E00027A169E0
:1044A0007A1902EB0900081AA0612078C00602D42C
:1044B0002046AFF30080002608E0D4E901211AF875
:1044C00006009047206A401C761C20624E45F4DBB3
:1044D0002078C0060AD52046AFF3008006E0D4E974
:1044E000012130209047206A401C2062381EA7F12D
:1044F0000107F4DC07E0D4E9012118F80500904732
:10450000206A401C2062281EA5F10105F3DC20462C
:10451000AFF300802078000602D50220BDE8F087C6
:104520000120FBE770472DE9FF4F0C461E464FF078
:10453000FF378BB0D2E90001DDF860800A908A462F
:10454000C1F30A5505B93D46002108464FF0000069
:10455000BAF1000F00F4400005DA00EB80004FF4E0
:10456000400101EA50004FEA9059B9F1010F00DD16
:10457000B9460A9850EA4A000ED044F61050A5F207
:10458000FF3545432F14B8F1000F1ED07542291E88
:104590001EDDC9F100021CE0B8F1010F4FF0000070
:1045A00001D0302103E0F24305E02154401CB04229
:1045B000FBDB30460022002121540B99C1F8088012
:1045C000C1E900200FB0BDE8F08FBD1B6D1CDEE718
:1045D0004A4600DA694206A800F018FB06AB93E8E9
:1045E000070003AB83E8070050460A9900F0E4FF98
:1045F0008DE80700A0F500501F3800900398002DAB
:104600000ADD42F21F014A460844002303A9039031
:10461000684601F04DFA09E0A0F500504A461F38FF
:10462000002303A90390684601F057FA8DE80700BC
:104630000004000C03D04FF0FF30410800E01046AA
:10464000B8F1000F03D00022009215461EE0751E3F
:1046500005D400F005FA303262556D1EF9D5B34627
:104660000122084302D000227F1C04E02078302879
:1046700001D100227F1E002A099784D01DE0112D50
:1046800007DA00F0EDF9303262556D1C50EA010294
:10469000F5D1084302D00098C8B10EE00021681E91
:1046A00005E0235C625C63542254401E491C814235
:1046B000F7DBAB46A81B401E0990002004F80B0056
:1046C0000B98099AC0F80880C0E9002B7AE71126F8
:1046D0004FF0000857E72DE9F04F88460446D21DF9
:1046E00022F0070191B0D1E90001CDE90A0101F002
:1046F0002BFB02460B98C00F01D02D2007E020684D
:10470000810701D52B2002E0202101EAC000032A05
:10471000099001D0072A05DB03464146204600F0F8
:10472000E5F90BE12078800601D5E06900E006207C
:10473000B8F1650F814606D0B8F1660F18D0B8F110
:10474000670F70D131E00020B9F1110F009001DB4B
:10475000112301E009F101030AAA01A90CA8FFF73E
:10476000E2FEDDE90C70002609F10105834647E011
:1047700001204B4600904FF000470AAA01A90CA85F
:10478000FFF7D1FEDDE90DB00C995D46002610B9AA
:1047900009F101000D18B9EB050003D4C0F1FF3693
:1047A00009F10105A5EB09002BE0B9F1010F01DAD0
:1047B0004FF001090020B9F1110F0090484601DDCA
:1047C000112300E003460AAA01A90CA8FFF7ABFEDB
:1047D000DDE90C704D4600268346207800070AD498
:1047E000AB4500DA5D4601A8012D04DD411911F841
:1047F000011C302907D04F4502DA17F1040F04DA03
:10480000012082460FE06D1EEEE7002F02DCED1B5B
:104810003E4403E0781CA84200DD7D1CB81B00F17B
:10482000010A4FF000472078000703D4AA4501DBB6
:104830004FF0FF3A0021B7F1004F0DF143088DF81A
:10484000431024D002202B23002F01DA7F422D2396
:104850000A21021EA0F1010000DC5FB197FBF1FC10
:1048600097FBF1F201FB1C7C17460CF1300C08F8A9
:1048700001CDEEE7A8F1010003702188090501D5FB
:10488000452100E06521A0F1010800F8011C09980C
:104890000FA9A1EB0807FF1D00B10120411901EB91
:1048A000EA70A1693844081A401EA0612078C00649
:1048B00002D42046AFF30080099828B1D4E9012141
:1048C0009047206A401C20622078C00622D52046EE
:1048D000AFF300801EE0002E04DBB34502DD01A82B
:1048E000805D00E03020D4E901219047206A401C1F
:1048F0002062761CAAF101005FEA000A0AD100F0EA
:10490000ABF8C0680168405CD4E901219047206A97
:10491000401C2062281EA5F10105DCDC07E0D4E97B
:10492000012118F8010B9047206A401C2062381EB4
:10493000A7F10107F3DC2046AFF30080032011B09C
:1049400041E6000001694A1C02610878704700B521
:104950008FB0CDE901310021059105497944CDE9B8
:10496000031011466846FFF733FC0FB000BD00008E
:10497000E5FFFFFF0A6802F8010B0A60704710B5F7
:10498000436913B1AFF3008001E0FFF7BBFB0120E7
:1049900010BD127800F124010A7000224A70012231
:1049A000EDE711684FF0FF32E9E70000074B70B503
:1049B0000D467B44FFF7CBFF0446284600F098F9EC
:1049C00010B14FF0FF3070BD204670BDF9D1FFFF30
:1049D0002DE9F04791460F4680460446002614F81C
:1049E000015B2DB100F030F80068405DC007F6D1E2
:1049F0002B2D02D02D2D18D0641E4A463946204654
:104A000000F0B4F827B13968A14201D1C7F800809D
:104A10004FF0020471050BD54042002803DDFFF77B
:104A200019FD0460A007BDE8F08746F48066E4E75E
:104A30000028F8DAFFF70EFD04606FF00040F2E79F
:104A4000004870470405002010B500F005F8001D6F
:104A500010BD00BF691E00000048704724050020FB
:104A600030B5B0F10A024FEA900E71F100034EEA40
:104A7000817EB0EB0E0061EB91014FEA101E4EEA11
:104A8000017E10EB0E0041EB11114FEA102E4EEAA1
:104A9000016E10EB0E0041EB11214FEA104E4EEA71
:104AA000014E10EB0E0041EB1141401841F10001A5
:104AB0004FEAD00040EA41704FEAD10110EB800587
:104AC0004FEA810444EA907444EB01046D1944EB0D
:104AD0000404521BA3414FF0000348BF0A3200D523
:104AE00030BD401C41F1000130BD00002DE9F04116
:104AF0001F46044603260168072A01F4006004DB10
:104B000008B116A505E016A503E008B115A500E05B
:104B100015A521F010002060A069C01EA0610FB192
:104B2000401EA0612046AFF300804FB1D4E90121BF
:104B300038469047206A401C2062C01C206206E074
:104B4000206AFAE7D4E9012115F8010B9047761E97
:104B5000F8D22046AFF30080BDE8F0814E414E0010
:104B60006E616E00494E4600696E66002DE9F05F89
:104B7000824615468B4600270AF10104B9460078A3
:104B8000302801D09DB113E014F8010B01277828DB
:104B900003D0582801D045B10AE00DB1102D07D13E
:104BA000002714F8010B102502E0082500E00A2573
:104BB0000026B0460EE005FB080005FB06F10127C4
:104BC0001FFA80F801EB1046B6F5803F00D3B946D6
:104BD00014F8010B294600F0AAF90028EBDABBF122
:104BE000000F05D00FB1641E00E05446CBF8004022
:104BF000B9F1000F06D0FFF72DFC02210160C81E9D
:104C0000BDE8F09F48EA0640FAE700002DE9F047CA
:104C1000814616468AB0354878440DC88DE80D00A7
:104C200032487844801C03AC0DC884E80D0041F67E
:104C30009B300844372190FBF1F290FBF1F5A5F190
:104C4000800501FB12041B3C02D56442012000E0F8
:104C50000020DFF898A080460027FA44AAF1BE0A97
:104C60000EE0E0070AD03246684607EB4701012311
:104C70000AEB810100F031FF8DE8070064107F1C12
:104C8000002CEED1194F7F44AE3F19E0E80715D054
:104C900007EB04100DF1180A90E80E008AE80E00E8
:104CA000C068F04201D1981908903246012306A944
:104CB00003A800F012FF03AB83E807006D10641C2B
:104CC000002DE3D14FF0010332466946B8F1000FE1
:104CD00003A802D000F0ECFE01E000F0FEFEC9E9FE
:104CE0000001C9F808200AB0BDE8F087483100008B
:104CF000007B00F08000704710B542485421FFF758
:104D00007FFB41485421FFF77BFB40485421FFF7CC
:104D100077FB3F493B483C4A3F4B08603D490A60AE
:104D20003A491960531C0365481C10650120086549
:104D30003B48344A39A1784400F02AF920B9384870
:104D400078440A3800F0C9F937482F4A35A1784429
:104D500000F01EF920B9344878440A3800F0BDF953
:104D600032482A4A2FA1784400F012F920B92F487E
:104D700078440A3800F0B1F940232248DC000021D1
:104D8000224600F0E2F820B125487844543800F07B
:104D9000A4F91D4822464023002100F0D6F820B196
:104DA00021487844543800F098F9184822461023D6
:104DB000002100F0CAF8002806D01C487844BDE85D
:104DC0001040563800F089B910BD104870B5006D1C
:104DD00020F001040B4800F051F90B4800F04EF9A7
:104DE0000A4800F04BF909E0206D20F0010520464B
:104DF00000F044F9204600F073F82C46002CF3D163
:104E000070BD0000080400205C040020B0040020F5
:104E10006C0200207002002074020020720000006A
:104E200042300000770000002E3000001A300000F1
:104E30000EB5CDE90001FFF786FA02906946012020
:104E4000ABBE0EBD08B5694600900220ABBE08BDE2
:104E50001FB58DE8070069460520ABBE04B010BD44
:104E60001FB58DE80F0069460620ABBEF6E708B512
:104E7000694600900920ABBE08BD1CB5CDE9000114
:104E800069460A20ABBE1CBD704708B56946009054
:104E90000C20ABBE08BD7546FFF7D2FDAE4605003F
:104EA0006946534620F00700854618B020B5FCF748
:104EB00039FFBDE820404FF000064FF000074FF0EB
:104EC00000084FF0000B21F00701AC46ACE8C00928
:104ED000ACE8C009ACE8C009ACE8C0098D46704731
:104EE00070B50446051F00F041F90068002C14BF9E
:104EF000446870BD002C18BFAC423CBF20466468BB
:104F0000F8D301680A18AA4218BF456003D12A687D
:104F100005461144016028684119A1421CBF6C601C
:104F200070BD6168696021680844286070BD3A28D6
:104F300000D2303820F02002412A01D3A2F13700FC
:104F4000884201D34FF0FF30704770B5C468A507A1
:104F500013D0650211D4B2F5807F09D0B2F5007F7D
:104F600006D0B2F5806F08D1012300F1240106E0DC
:104F70005D1E6FF07F46B54201D3012070BD016117
:104F8000C361416024F470611143C160002070BDB1
:104F90002DE9F0410C4607461646104600F06EF823
:104FA0002078611C61280AD0722802D077283CD171
:104FB00002E00125002405E00225042402E0082483
:104FC00048F2020511F8010B2B2806D0622809D0FF
:104FD00011F8010C74280AD00BE045F0030544F0E9
:104FE0000204EFE745F0040544F00104EAE744F069
:104FF000100438462146FFF71BFF411C15D0002145
:10500000316171604FF40071F560F16170612007EA
:1050100004D530460222002100F022F9306D40F024
:10502000010030653046BDE8F0810020FBE72DE946
:10503000F0410D460646104C206DC10704D04108D2
:1050400004D020F00104F7E722460EE0542000F0DF
:10505000D8F807000ED0206D47F001010843542115
:1050600020653846FFF7CCF93A4629463046BDE878
:10507000F0418DE70020D6E7080400202DE9F04735
:1050800004464FF000094FF0FF37C568D4E90486A5
:10509000A80707D0204600F093F93046FFF7D2FE6C
:1050A000002802DA3846BDE8F087280502D54046D8
:1050B000FFF716FF4C212046FFF7A2F9206D20F0E4
:1050C000010020654846EEE710B50446AFF30080C6
:1050D0002046BDE81040FBF791B810B500F0BAF9D2
:1050E000BDE8104000F0B0B94FF0013C50F8042B7F
:1050F00051F8043B9A4221D1A2EB0C03934313EAEB
:10510000CC1317D150F8042B51F8043B9A4215D117
:10511000A2EB0C03934313EACC130BD150F8042BEE
:1051200051F8043B9A4209D1A2EB0C03934313EAD2
:10513000CC13DBD04FF00000704700BFD01A01BA8B
:10514000B1FA81F101F0180122FA01F0CB40C1F16E
:105150002001DBB2C0B2C01A2CFA01F3D11A91437C
:1051600011EAC311E6D1704770470000004870474C
:105170000C050020704770477047704738B50446EB
:105180000A4600206946AFF30080002808BF38BDFA
:1051900002460099204600F084F9012038BD012024
:1051A00000F0D3B9F8B5AFF30080054600200C46F7
:1051B000102000BF0646A819A0420DD93246694604
:1051C0000020AFF30080070008BF00F0BEF9009890
:1051D000A04218BF0546C419FFF7C8FF056007467F
:1051E000F01D20F007004619284600F053F9B4429C
:1051F00008BFF8BDA21B31463868BDE8F84000F092
:1052000050B970B50646FFF7B1FF056806F10B000F
:1052100020F00704B4429CBF002070BD2B466A6892
:10522000BAB11068A04210D304F1080188423CBF13
:105230005068586007D35168101941601168091B04
:10524000016058601460101D70BD13465268002A3A
:10525000E7D121462846FFF791FF0028DED170BD37
:105260002DE9F041044616460D464769007B80074C
:105270002ED03846FFF7FBFD50BB3EB3012E02D0C7
:10528000022E25D104E0204600F025F905441DE05A
:105290003846FFF7FAFDE168002841F01001E160AF
:1052A00005DA204600F058F80120BDE8F081C90376
:1052B0000BD56268E16A914200D81146A269114497
:1052C0002269891A814200DD08460544002D01DA71
:1052D0000220EAE7E16A6068E268814206D291034F
:1052E000E06203D522F4003141F01002A6690027E4
:1052F000AE4213DCE16A814201D90B4600E003466D
:1053000003EB060C2369ACEB030CAC4506DD8142D4
:1053100001D98C4600E084469C4505D1A7602760F2
:1053200042F02000A5620DE0AD1BE669AE1B814294
:10533000A66000D90846C01A281A20605819606073
:1053400022F0200003490840E060002084F8487003
:10535000ABE70000BFCFD7FFC16821F4001141F0D7
:105360008001C16000218160016070472DE9F04734
:10537000814614460E464FF0FF383248D5685769CB
:10538000054209D03846A169FFF777FD002811DBF7
:105390002C48C0430540E5602B4632464946384616
:1053A000FFF756FDA16920F00042B21A114400280F
:1053B000A16103D02046FFF7CFFF4046BDE8F0874C
:1053C00070B504460569C06A6168884200D808461D
:1053D000E16821F42011E160C90312D5A84208D088
:1053E0002246411B2846FFF7C1FF10B14FF0FF30A6
:1053F00070BD0020E562C4E90150E06820F480300F
:10540000E060002070BD10B50446C06820F02000A8
:10541000E060A16AA06988420DD02046FFF7D0FF66
:10542000E06820F4405040F01000E060A06AA06105
:105430002069E062606044F24001E0688843E06017
:1054400010BD000010000200002801D000F01CB8C0
:105450007047000010B5014602A000F05DF8012081
:1054600010BD000053494752545245443A205265FA
:105470006469726563743A2063616E2774206F708B
:10548000656E3A200000000001491820ABBEFEE71F
:105490002600020000210160C0E9011070471020C1
:1054A0007047034640688C46002818BF88423CBFBE
:1054B00003464068F8D318681844884207D00CF1B6
:1054C000030020F00700001D411A521A0146081D72
:1054D0000A60FFF705BD10B50146C268900703D00A
:1054E000900607D5886A0AE0FEF7B4FF0121016043
:1054F000881E10BD8B69486818440B69C01A91F862
:1055000048301BB191F84910401A10BD1103FCD569
:105510000028FADD401E10BD70B505460C460A2075
:1055200000E06D1C00F018F835B128780028F8D19B
:1055300002E0641C00F010F814B120780028F8D1C3
:10554000BDE870400A2000F007B810B500F00CF874
:10555000BDE81040FFF778BF08B569468DF8000038
:105560000320ABBE08BD000010B5012805D0002106
:1055700003A0FFF7D1FF012010BD09A1F8E700004B
:1055800053494752544D454D3A204F7574206F662C
:105590002068656170206D656D6F72790000000094
:1055A0003A2048656170206D656D6F727920636F78
:1055B00072727570746564005FEA400C08BF91F008
:1055C000000F4FEA8C234FEAC12243EA51514FEAC0
:1055D0001C5018BF00F5F0404FEA300018BF41F0F2
:1055E00000415FEA6C5C00F02980BCF1FF3F08BF1E
:1055F00040F080407047130C06BF12044FF0100CAF
:105600004FF0000C130E04BF12020CF1080C130F24
:1056100004BF12010CF1040C930F04BF92000CF1B3
:10562000020CD30F04BF52000CF1010C11464FF0D5
:105630000002A0F11F00A0EB0C00704711F0004F1A
:1056400008BF704731F000413FF4D5AF0B0C06BFE7
:1056500009044FF0100C4FF0000C0B0E04BF0902B0
:105660000CF1080C0B0F04BF09010CF1040C8B0F9B
:1056700004BF89000CF1020CCB0F04BF49000CF1F0
:10568000010CCCF12003A0EB0C0022FA03F302FA88
:105690000CF241EA030100F10100704720F07F4C59
:1056A00080EA030023F07F47ACEB070303F57C534C
:1056B00000F0004003F1FF032DE980494FEA154B4C
:1056C00009B44FEA144325EA0B4E24EA03480FF2CB
:1056D000042606EB132749083E785FEA320203FBF3
:1056E0000667C7F5000707FB06F64FEA54374FEA8F
:1056F000D64606F1020607FB066CCCF1005C4FEAC9
:105700001C472CEA074C07FB06F40CFB06F504EBE0
:1057100015464FEA961634BF00204FF000404FEA7E
:10572000D13706FB07FC4FEA1C4C0CFB0BF7D21BD6
:1057300003FB0CF761EB07010CFB0EF7B0EB074026
:1057400072EB17420CFB08F734BFA2EB0742B2EB37
:10575000074261EB17414FEA0C444FEA910706FB01
:1057600007FC4FEA1C4C0CFB0BF7B0EBC74072EB8D
:10577000573203FB0CF734BFA2EBC742B2EBC74270
:1057800061EB57310CFB0EF7B0EBC70072EB5772B1
:105790000CFB08F734BFA2EBC702B2EBC70261EB08
:1057A0005771039F4FEA816141EA921104EBCC04E7
:1057B0004FEAD1374FEA826206FB07FC42EA9012B9
:1057C0004FEA80604FEA1C4C0CFB0BF7D21B03FB2B
:1057D0000CF761EB07010CFB0EF7B0EB074072EB27
:1057E00017420CFB08F734BFA2EB0742B2EB0742AB
:1057F00061EB17414FEA8C554FEA910704EB9C246B
:1058000006FB07FC4FEA1C4C0CFB0BF7B0EBC74048
:1058100072EB573203FB0CF734BFA2EBC742B2EB7B
:10582000C74261EB57310CFB0EF7B0EBC70072EBD0
:1058300057720CFB08F734BFA2EBC702B2EBC702EA
:1058400061EB577115EB4C254FEA816141EA9211EA
:105850004FEA82624FEAD13742EA901206FB07FC18
:1058600044F100044FEA80604FEA1C4C0CFB0BF73C
:10587000D21B03FB0CF761EB07010CFB0EF7B0EB3F
:10588000074072EB17420CFB08F734BFA2EB07424C
:10589000B2EB074261EB174115EB1C154FEA813162
:1058A00041EA92414FEA823242EA90424FEA803026
:1058B0004FEA0C7644F1000448EA03434EEA0B48F1
:1058C0004FF0000EB2EB080C71EB030724BF6246E9
:1058D00039464EEB0E0E4FF0000B00185241494175
:1058E0004BEB0B0BB2EB080C71EB03077BF1000BDE
:1058F00024BF624639464EEB0E0E4FF0000B0018E7
:10590000524149414BEB0B0BB2EB080C71EB030717
:105910007BF1000B24BF624639464EEB0E0E51EA76
:10592000020718BF46F0010616EB0E7655F100028D
:1059300054F1000103D5BDE88901BDE80088BDE848
:105940008901BDE80048B619524141EB0101A3F1BC
:105950000103704780807F7E7D7C7B7A79787776C3
:1059600076757473727171706F6E6E6D6C6C6B6A3C
:105970006A696868676666656464636362616160DA
:10598000605F5F5E5E5D5D5C5C5B5B5A5A59595857
:1059900058575756565555555454535352525251C1
:1059A000515050504F4F4F4E4E4D4D4D4C4C4C4B17
:1059B0004B4B4A4A4A49494948484847474747465E
:1059C000464645454544444444434343434242429A
:1059D00042414141002B9C4630D477002BD01CB56E
:1059E0004FEA370703B44FF010004FF01001BAF13F
:1059F000000F06D0BCF1000FDCBF40F0080040F003
:105A000008014FF000000FBCBDE810400BF1010B86
:105A1000BBF1010F08BF5FEA170722BF12F10102B5
:105A200011F101014FF0004143F1000300F000408B
:105A300043EA00007047F9D35708D0E746EA064624
:105A400013F1400F4FEA16461FDD13F1200FDFBFA1
:105A500016430A46002120335B42BED0C3F1200723
:105A600046EA064602FA07F74FEA164646EA0706EE
:105A7000C3F1200722FA03F201FA07F721FA03F132
:105A80004FF0000342EA0702A7E746EA020646EAA9
:105A900006464FEA164646EA0106BCBF46EA0646F7
:105AA000360C4FF000034FF000024FF0000194E776
:105AB0002DE9804C9A46934670B491E8380007C8A7
:105AC00031EA400C48BF34EA430C03D5FFF7E6FD4A
:105AD000FFF780FFF0BCBDE8008C2DE9804C9A46B2
