:020000040800F2
:10000000F8060020010100082D150008ED14000875
:1000100029150008E90C00088D21000800000000E7
:10002000000000000000000000000000211A00088D
:10003000350F000800000000E51500082B1D000822
:100040001B0100081B0100081B010008091900081A
:100050001B0100081B0100081B0100081B01000810
:100060001B0100081B0100081B0100081B01000800
:100070001B0100081B0100081B0100081B010008F0
:100080001B0100081B0100081B0100081B010008E0
:100090001B0100081B0100081B0100081B010008D0
:1000A0001B0100081B0100081B0100081B010008C0
:1000B0008D1D00081B0100081B0100081B01000822
:1000C0001B0100081B0100081B0100081B010008A0
:1000D0001B010008D51E00081B0100081B010008B9
:1000E0001B0100081B0100081B010008DFF80CD0F1
:1000F00000F0BAFB00480047E12A0008F80600209B
:100100000648804706480047FEE7FEE7FEE7FEE7B1
:10011000FEE7FEE7FEE7FEE7FEE7FEE72D1D00082F
:10012000ED00000840EA01039B0703D009E008C97D
:10013000121F08C0042AFAD203E011F8013B00F8AC
:10014000013B521EF9D27047D2B201E000F8012BF8
:10015000491EFBD270470022F6E710B513460A4647
:1001600004461946FFF7F0FF204610BD421E12F864
:10017000013F002BFBD111F8013B02F8013B002BA2
:10018000F9D1704730B505462A460B4612F8010BE7
:1001900013F8014B08B1A042F8D01CB1002802D0DE
:1001A0006D1CF1E7284630BD421C10F8011B0029E8
:1001B000FBD1801A704770B5064602F00DF804684E
:1001C00005460A220021304600F06AFA2C6070BD14
:1001D00030B480EA010202F0004530F0004221F024
:1001E000004013D090B1C30DD40DC2F31601C0F37B
:1001F0001600E41A41F4000140F400027D349142FB
:1002000001D3641C00E04900002C02DA30BC00205D
:1002100070474FF400000023914201D3891A034331
:1002200040084FEA4101F7D151B1914202D14FF05C
:10023000004105E002D24FF0010101E06FF0010141
:1002400003EBC450284430BC00F062BA2DE9FE4FE5
:10025000804681EA0300C00F0C46009021F0004167
:1002600023F00045B8EB0200A94105D240462146E3
:1002700090461C460B46024623F00040104347D0F0
:10028000270DC7F30A00C3F30A510290401A0190E8
:1002900040286BDAC3F3130040F4801B00989246A9
:1002A00020B10023D2EB030A63EB0B0B01985946F4
:1002B000C0F14002504600F0D2F906460D465046C5
:1002C0005946019A00F0DAF910EB08006141002468
:1002D00087EA115284EAE7731A4340D0009A62B366
:1002E000019A012A4FEA075215DC001B61EB02015B
:1002F0004FF0004202EA0752CDE90042001C41F5EE
:10030000801132462B4600F049FA03B0BDE8F08F69
:1003100040462146F9E7001B61EB0201001C41F554
:10032000801300185B412018A2F5001747EB03016A
:1003300040EAD570B6196D4111E06D084FEA3606F6
:1003400045EAC0754FEA0752001B61EB0201001C31
:1003500041F5801149084FEA3000001951413246F9
:100360002B4603B0BDE8F04F00F009BA0098012217
:1003700040000023D0EB020263EBE07300982146BB
:100380004FEAE074B8EB000061EB0401E9E783F0A9
:1003900000435BE781F0004158E72DE9FE4F81EA19
:1003A000030404F0004421F0004100944FF0000BDE
:1003B00023F0004350EA01045ED052EA03045BD00C
:1003C000C3F30A54C1F30A552C44A4F2F334019444
:1003D000A0FB0254C1F3130141F48011C3F31303D2
:1003E00043F4801301FB024400FB034E840A970A86
:1003F00044EA815447EA8357A4FB076802958D0AB3
:1004000005FB07854FEA932C04FB0C542705029D3E
:100410004FEA065847EA1637B5EB08056EEB070CAE
:10042000870E920E47EA811742EA8312A7FB020168
:10043000B6EB0B0164EB00042B0D43EA0C335E18A2
:1004400044EB1C50DA465146E7FB0201C5F31304A6
:100450004FEA0B3343EA14534FEA0432019C43EA58
:100460000603A4F10C040294009CCDE900B400F052
:1004700095F903B0BDE8F08F00200146F9E72DE9BA
:10048000F04D81EA030404F0004B21F000451446CE
:100490004FF0000A23F0004150EA050220D054EA50
:1004A00001021DD0C5F30A570246C5F31303C1F379
:1004B0001300C1F30A5640F4801543F48013A7EBF0
:1004C0000608101BD64608F2FD3873EB050002D370
:1004D00008F1010801E092185B41B8F1000F03DA5E
:1004E00000200146BDE8F08D00204FF48011064643
:1004F00084460EE0171B73EB050705D3121B63EB55
:10050000050306434CEA010C49084FEA30009218F3
:100510005B4150EA0107EDD152EA030012D082EAB2
:10052000040083EA0501084305D0101BAB4106D245
:100530000122002306E000224FF0004302E06FF0AA
:10054000010253101AEB06004CEB085110EB0A00A5
:1005500041EB0B01BDE8F04D00F011B996230022EC
:10056000114600F0DEB800F0004230F000400AD042
:10057000C10D01F56071C0F3160042EA0151C208D5
:1005800040071143704700200146704730B5041EF4
:1005900071F1000404DB4FF00044404264EB0101C0
:1005A000141E73F1000405DB1C464FF00043524259
:1005B00063EB0403994208BF904230BD002801DB81
:1005C000C0F10040002901DBC1F1004188427047C1
:1005D00030B50B46014600202022012409E021FA13
:1005E00002F59D4205D303FA02F5491B04FA02F510
:1005F0002844151EA2F10102F1DC30BD2DE9F05FA7
:100600000546002092469B46884606468146402481
:100610001BE0284641464746224600F037F953463C
:100620005A46C01A914110D311461846224600F08E
:1006300016F82D1A67EB01084F46224601200021CB
:1006400000F00DF817EB00094E41201EA4F1010443
:10065000DFDC484631462A464346BDE8F09F202A63
:1006600004DB203A00FA02F1002070479140C2F109
:10067000200320FA03F3194390407047202A06DB39
:10068000CB17203A41FA02F043EAE07306E041FA60
:1006900002F3D040C2F1200291400843194670474E
:1006A0002DE9F04791460F4680460446002614F88F
:1006B000015B2DB100F0FAF80068405DC007F6D18B
:1006C0002B2D02D02D2D18D0641E4A4639462046C7
:1006D00000F0F0F827B13968A14201D1C7F80080D5
:1006E00071054FF002040BD54042002803DD01F0F4
:1006F00073FD0460A007BDE8F08746F48066E4E778
:100700000028F8DA01F068FD04606FF00040F2E7BD
:100710000029A8BF7047401C490008BF20F0010015
:10072000704710B4B0FA80FC00FA0CF050EA0104F3
:1007300004BF10BC704749B1CCF1200421FA04F485
:1007400011FA0CF118BF012121430843A3EB0C015E
:10075000CB1D4FEA00614FEA102042BF002010BCC1
:10076000704700EBC35010440029A4BF10BC704771
:10077000401C490008BF20F0010010BC704710B5B4
:10078000141E73F1000408DA401C41F100019218B4
:100790005B411A4301D120F0010010BD2DE9F04D5D
:1007A00092469B4611B1B1FA81F202E0B0FA80F2B2
:1007B00020329046FFF753FF04460F4640EA0A00F6
:1007C00041EA0B0153465A46084313D0114653EAF7
:1007D000010019D0C8F14002504600F057F8054614
:1007E0000E46504659464246FFF739FF084305D0AA
:1007F000012004E020463946BDE8F08D0020054385
:1008000046EAE0762C4337430A986305E40AA0EBF6
:1008100008000022FD0A44EA47540A3002D50020AD
:100820000146E9E7010510196941DDE908450019AC
:100830006941BDE8F04DA2E7C1F30A52C1F31301CB
:1008400040F2FF3341F480119A4202DA002001465F
:10085000704740F233439A42A2F2334202DC5242E2
:1008600000F014B8FFF7FBBE064C074D06E0E06849
:1008700040F0010394E8070098471034AC42F6D3E7
:10088000FFF738FC642F0008842F0008202A04DBBF
:10089000203A21FA02F00021704721FA02F3D040F9
:1008A000C2F1200291400843194670470048704742
:1008B000642E00082DE9F05F824600780027154677
:1008C0008B460AF10104B946302801D09DB113E0EE
:1008D00014F8010B0127782803D0582801D045B11E
:1008E0000AE00DB1102D07D10027102514F8010BD7
:1008F00002E0082500E00A250026B0460EE005FBD0
:10090000080005FB06F1012701EB10461FFA80F8ED
:10091000B6F5803F00D3B94614F8010B294600F024
:1009200018F80028EBDABBF1000F05D00FB1641EF8
:1009300000E05446CBF80040B9F1000F06D001F0BA
:100940004BFC02210160C81EBDE8F09F48EA06404A
:10095000FAE73A2800D2303820F02002412A01D3A9
:10096000A2F13700884201D34FF0FF30704770B5D5
:100970008C1810F8015B15F0070301D110F8013B4A
:100980002A1106D110F8012B03E010F8016B01F8D1
:10099000016B5B1EF9D12B0705D40023521E0DD429
:1009A00001F8013BFAE710F8013BCB1A921C03E077
:1009B00013F8015B01F8015B521EF9D5A142D8D3AF
:1009C000002070BD21B1826842F00102826003E024
:1009D000826822F001028260704721B1826842F48D
:1009E0008072826003E0826822F4807282607047C5
:1009F000014600208A6802F004020AB1012000E0EA
:100A000000207047014600208A6802F008020AB1FF
:100A1000012000E00020704730B50246002000238E
:100A200050680F4C20400D790C6844EA052420439F
:100A3000506090680B4C2040D1E902542C434D7912
:100A400044EA450420439060D06A20F470000C7C96
:100A5000641EE4B2234340EA0350D06230BD00007C
:100A6000FFFEF0FFFDF7F1FFF0B504460D46002054
:100A70000021092D11DDE068A5F10A0606EB460705
:100A8000072606FA07F18843A5F10A0606EB460693
:100A900003FA06F10843E0600CE0206905EB450726
:100AA000072606FA07F1884305EB450603FA06F127
:100AB00008432061072A0FDA606B561E06EB860793
:100AC0001F2606FA07F18843561E06EB860605FA2E
:100AD00006F10843606322E00D2A0FDA206BD61F6F
:100AE00006EB86071F2606FA07F18843D61F06EB9A
:100AF000860605FA06F10843206310E0E06AA2F1D9
:100B00000D0606EB86071F2606FA07F18843A2F1B9
:100B10000D0606EB860605FA06F10843E062F0BD15
:100B2000816841F008018160704721B1826842F418
:100B3000A002826003E0826822F4A0028260704713
:100B4000816841F0040181607047000008B501210F
:100B5000042000F075FD0220ADF8000000208DF8A3
:100B600003006946014800F07AFB08BD0008014017
:100B700010B5FFF7EBFF00F001F810BD00B591B024
:100B80000121084600F03CFD0121480200F058FD1B
:100B9000334800F00BF933480690334807900020A3
:100BA00008900120099000200A900B904FF480706B
:100BB0000C9080000D9020200E9000020F900020DD
:100BC000109006A9264800F097F90121244800F06A
:100BD000E1F8002001908DF8080001208DF809004F
:100BE0004FF4602003900020049001208DF8140041
:100BF00001A91C484C38FFF70FFF4FF4404000F0AC
:100C0000F3FC05230122114616484C38FFF72CFF50
:100C1000012114484C38FFF7E0FE012111484C38FF
:100C2000FFF7D0FE0F484C38FFF77AFF00BF0D48A2
:100C30004C38FFF7E7FE0028F9D10A484C38FFF797
:100C40007FFF00BF07484C38FFF7D2FE0028F9D1DC
:100C5000012104484C38FFF768FF11B000BD0000C7
:100C6000080002404C2401407400002008B5012116
:100C7000082000F0E5FC4020ADF8000010208DF8C1
:100C8000030003208DF802006946044800F0E7FAEB
:100C90004021024800F06EFB08BD0000000C01403E
:100CA00010B5012000F0DCFC002000F0D9FC10BDE4
:100CB00008B50146002000900348009000980844C1
:100CC00000900098008808BD006C004008B5002224
:100CD0000092044A0092009A02440092009A116025
:100CE00008BD0000006C004000BFFEE74FF0FF3081
:100CF0000249086048608860704700006400002076
:100D000010B500F0D9FD044600200EE007E01E49B2
:100D100051F820101D4A11441B4A42F820101A496C
:100D200051F82010A142F2D3401C0328EEDB1648F4
:100D300000681549496888420ED213480068124974
:100D40008968884203D210481149086013E00E48B0
:100D500008300F4908600EE00B4840680A4989686E
:100D6000884204D20848001D0949086003E006488B
:100D700008300749086006490968086800F008FE5D
:100D800000F032FE10BD0000640000208051010020
:100D90007000002021B1026842F00102026004E00C
:100DA00002684FF6FE731A400260704701684FF602
:100DB000FE72114001600021016041608160C160EC
:100DC0004B49884208D14A490839496841F00F0126
:100DD000474A083A51608AE045491431884208D1AF
:100DE00043490839496841F0F001414A083A5160E5
:100DF0007DE03F492831884208D13D49083949689A
:100E000041F470613A4A083A516070E038493C3127
:100E1000884208D136490839496841F47041344A5A
:100E2000083A516063E032495031884208D1304974
:100E30000839496841F470212D4A083A516056E05A
:100E40002B496431884208D129490839496841F45D
:100E50007001274A083A516049E0254978318842B3
:100E600008D123490839496841F07061204A083A9D
:100E700051603CE01F49884206D1011F096841F0DA
:100E80000F01021F116032E01A491431884208D163
:100E90001849091F096841F0F001164A121F116034
:100EA00025E014492831884208D11249091F0968F0
:100EB00041F470610F4A121F116018E00D493C3176
:100EC000884208D10B49091F096841F47041094A59
:100ED000121F11600BE007495031884207D10549C4
:100EE000091F096841F47021024A121F11607047FE
:100EF000080002400804024010B50022026847F6CC
:100F0000F0739A430C6A8B6823430C6923434C6942
:100F100023438C692343CC6923434C6A23438C6A63
:100F200023431A430260CB6843600B6883604B68BD
:100F3000C36010BD704700002DE9F04104460D4626
:100F400016461F462DA001F023F900202C49086009
:100F500000BF2B480068B0F5FA7FFAD329A001F052
:100F600017F900202649086000BF25480068B0F541
:100F7000FA6FFAD327A001F00BF90020204908608E
:100F800000BF1F480068B0F5FA7FFAD32A46214611
:100F900024A001F0FDF800201949086000BF18489E
:100FA000006842F228318842F9D33A46314623A0FC
:100FB00001F0EEF800201249086000BF10480068F8
:100FC000B0F57A7FFAD324A001F0E2F800200C49B2
:100FD000086000BF0A480068B0F5FA7FFAD322A083
:100FE00001F0D6F800200649086000BF04480068F8
:100FF000B0F5FA7FFAD3BDE8F08100002B2B2B006F
:101000001000002041542B524553544F52450D0AB5
:101010000000000041542B43574D4F44453D310DD6
:101020000A00000041542B43574A41503D2225738A
:10103000222C222573220D0A0000000041542B436C
:10104000495053544152543D22544350222C22259E
:1010500073222C25640D0A0041542B4349504D4FF7
:1010600044453D310D0A000041542B43495053453E
:101070004E440D0A000000002DE9F04196B0804674
:10108000002003900490059034A1404600F094F8AD
:10109000041E60D0002004E014F8011B03AA1154C0
:1010A000401C2178302902DD21783929F4DB2DA17B
:1010B000404600F06FF8041E11D0002505E014F83A
:1010C000012B28466D1C0EA90A5420782228F6D13F
:1010D00000200EA948550EA800F0F2FD00BF03A89D
:1010E000FFF769F8064622480168B14233D006602E
:1010F000FFF7FCFD1FA1404600F05EF8041E2AD059
:1011000020783038C7B2002521E0002000900190FF
:1011100002902A461BA1684601F04AF869464046FB
:1011200000F038F8041E0DD0002005E014F8013B53
:101130000146401C06AA53542228F7D1002106AAD2
:10114000115400BF294606A800F0ECFC6D1CBD42FE
:1011500001DA032DD9DB16B0BDE8F0814861736870
:10116000000000004461746554696D650000000072
:1011700008000020506572696F644E756D6265727B
:101180000000000057616B65757054696D652564DA
:101190000000000070B506460C4621463046FEF7BA
:1011A000F1FF051E06D02046FEF7FEFF2844051D70
:1011B000284670BD0020FCE770B506460C46214667
:1011C0003046FEF7DFFF051E06D02046FEF7ECFF97
:1011D0002844C51C284670BD0020FCE710B500F06F
:1011E00029F800F001F810BD0EB50121084600F005
:1011F00017FA40F2E730ADF804004720ADF80000E0
:101200000020ADF80600ADF802008DF80800694630
:101210004FF0804000F0F8FD0121880700F0C8FD84
:1012200001221146900700F0E6FD0121880700F039
:10123000C5FD0EBD08B54FF4E06000F0C3F91C20F9
:101240008DF8000002208DF8010003208DF80200C7
:1012500001208DF80300684600F07CF908BD2DE9F7
:10126000F04102460025002600200023002400272C
:1012700091F803C00CF00F0591F803C00CF0100CAE
:10128000BCF1000F03D091F802C04CEA050591F8BB
:1012900000C0BCF1000F31D0146800202BE04FF0EB
:1012A000010C0CFA00F3B1F800C00CEA03069E42F0
:1012B00020D183004FF00F0C0CFA03F7BC4305FA62
:1012C00003FC4CEA040491F803C0BCF1280F06D1DA
:1012D0004FF0010C0CFA00FCC2F814C00AE091F8BF
:1012E00003C0BCF1480F05D14FF0010C0CFA00FC13
:1012F000C2F810C0401C0828D1D31460B1F800C057
:10130000BCF1FF0F34DD546800202EE000F1080C22
:101310004FF0010808FA0CF3B1F800C00CEA03061C
:101320009E4221D183004FF00F0C0CFA03F7BC430F
:1013300005FA03FC4CEA040491F803C0BCF1280F41
:1013400005D100F1080C08FA0CF8C2F8148091F8E5
:1013500003C0BCF1480F07D100F1080C4FF00108A1
:1013600008FA0CF8C2F81080401C0828CED354604C
:10137000BDE8F081416170470161704708B5012106
:10138000042000F05DF90121082000F059F9012145
:10139000102000F055F910208DF8030003208DF87F
:1013A00002000420ADF8000069462848FFF757FF07
:1013B00004212648FFF7DEFF0820ADF8000069464B
:1013C0002248FFF74CFF08212048FFF7D5FF2020D7
:1013D000ADF8000069461E48FFF741FF20211C4878
:1013E000FFF7CAFF8020ADF8000069461848FFF7F4
:1013F00036FF80211648FFF7BFFF4FF48070ADF82D
:10140000000069461248FFF72AFF4FF48071104828
:10141000FFF7B0FF4FF40060ADF8000069460B48DD
:10142000FFF71DFF4FF400610848FFF7A5FF4FF4D9
:101430008050ADF8000069460448FFF710FF4FF4F4
:1014400080510248FFF796FF08BD000000080140E8
:10145000000C0140F0B58DB004463022224901A8AD
:10146000FEF760FE6069451E642195FBF1F1284698
:10147000EA1705EB9272C1EBA2014FF4C87295FB1B
:10148000F2F28F186069C11700EB91718910A0EB1F
:10149000810191B96422616991FBF2F302FB13119E
:1014A00031B99200616991FBF2F302FB131121B98A
:1014B0002169022901DD012600E0002640F26D10BD
:1014C00005FB00712069401E01AA52F82000084463
:1014D000E16808440644072096FBF0F100FB116028
:1014E000A0610DB0F0BD0000B02D000800BFFEE708
:1014F00008B50121102000F0A3F84FF40050ADF81A
:10150000000010208DF8030003208DF802006946CA
:101510000448FFF7A4FE4FF400510248FFF72CFFE8
:1015200008BD00000010014000BFFEE7704708B58D
:101530004FF4A06000F046F825208DF8000001204F
:101540008DF801008DF802008DF80300684600F068
:1015500001F808BD70B5002100230F22C47804B340
:10156000154C246804F4E064C4F5E064210AC1F178
:101570000403CA40447804FA03F1847814402143F8
:1015800009010E4C0678A155047804F01F050124CA
:10159000AC4005786D11AD0005F1E025C5F80041BE
:1015A00009E0047804F01F050124AC40044D0678DE
:1015B000761145F8264070BD0CED00E000E400E037
:1015C00080E100E002490143024A116070470000D7
:1015D0000000FA050CED00E00149086270470000C8
:1015E00000000E427047000001460020034A506888
:1015F00020F4404008435060704700000010024053
:1016000029B1064A52690243044B5A6104E0034A75
:1016100052698243014B5A6170470000001002403A
:1016200029B1064AD2690243044BDA6104E0034A55
:10163000D2698243014BDA6170470000001002401A
:1016400029B1064A92690243044B9A6104E0034AB5
:1016500092698243014B9A6170470000001002407A
:101660000149086070470000400442420348406A54
:1016700040F080700149486270470000001002404D
:1016800030B500210022002400232D4D6D6805F0A7
:101690000C0121B1042905D0082923D105E0294DE9
:1016A000056022E0274D05601FE0254D6D6805F4BB
:1016B0007012234D6D6805F48034022505EB9242CB
:1016C0001CB9214D554305600BE01D4D6D6805F4B7
:1016D00000351DB11C4D5543056002E0194D5543C1
:1016E000056002E0174D056000BF00BF144D6D6836
:1016F00005F0F0010909154D6B5C0568DD4045609A
:101700000F4D6D6805F4E061090A104D6B5C45688A
:10171000DD4085600A4D6D6805F46051C90A0B4DC6
:101720006B5C4568DD40C560054D6D6805F4404162
:10173000890B074D6B5CC568B5FBF3F5056130BDE2
:101740000010024000127A0000093D004C01002008
:101750005C01002010B501460022002300204A1140
:10176000012A02D1094C236806E0022A02D1074C63
:10177000236A01E0054C636A01F01F0201249440D2
:101780001C400CB1012000E0002010BD0010024000
:101790000149086070470000800442420149086026
:1017A000704700003C0442420249096A0143014A71
:1017B000116270470010024010B504460420FFF784
:1017C00077FA4AF2A551884208D0204600F06EFB15
:1017D0004AF2A5510420FFF779FA22E0204600F0F2
:1017E00065FB01214FF0C050FFF71AFF0120FFF702
:1017F000F3FE0120FFF7CCFF00BF6120FFF7AAFF37
:101800000028FAD07B20FFF7A5FF10B97A20FFF758
:10181000A1FF00F0F3F80121032000F093F800F09D
:10182000E3F8FFF723FF10BD024909888143014A0D
:10183000118070470428004010B501214FF0C050BE
:10184000FFF7EEFE0120FFF7C7FEFFF729FA0120A0
:10185000FFF79EFF00BF6120FFF77CFF0028FAD052
:101860004FF40070FFF7A0FF0120FFF797FF00F093
:10187000C5F800F0B9F80121032000F063F800F08A
:10188000B3F849F63F4000F09FF800F0ADF810BD06
:101890000348008840F010000149088070470000AC
:1018A00004280040034800884FF6EF7108400149C2
:1018B0000880704704280040002103480188001F69
:1018C000008841EA004070471C2800400146002083
:1018D000034A12880A400AB1012000E00020704744
:1018E0000428004001460020064A12880A40D0B26F
:1018F000044A121F12880A4012B108B1012000E008
:10190000002070470428004010B50120FFF7EAFFCF
:1019100038B10120FFF788FF01200849086000F076
:1019200063F80220FFF7DEFF38B1012004490860A8
:101930000220FFF779FF00F057F810BDA800002043
:10194000AC00002029B1064A12880243044B1A80D9
:1019500004E0034A12888243014B1A80704700005A
:101960000028004008B54FF4C060FFF72BFE0320AD
:101970008DF8000001208DF8010000208DF8020094
:1019800001208DF803006846FFF7E4FD08BD000064
:1019900000B50246FFF77CFF100C03490880091DC3
:1019A0000A80FFF77FFF00BD2028004000B50246F7
:1019B000FFF76EFF100C03490880091D0A80FFF72E
:1019C00071FF00BD1828004000B50246FFF760FF18
:1019D000C2F3034003490880091D0A80FFF762FF34
:1019E00000BD00000828004000BF0348008800F048
:1019F00020000028F9D070470428004007480088DC
:101A00004FF6F77108400549088000BF0348008879
:101A100000F008000028F9D07047000004280040BA
:101A2000704700002DE9F041D0B0044600202A495B
:101A30000860642105A8FEF78EFB28A105A8FEF723
:101A400095FB2A482AA10268684600F0B1FB694666
:101A500005A8FEF78BFB27A105A8FEF787FB54F826
:101A6000048B4046FEF77FFD05462A460B4625A11E
:101A7000684600F09DFB694605A8FEF777FB012547
:101A800019E054F8048B4046FEF76DFD06461F4AE8
:101A90001F4BFEF77BFD0DD24046FEF764FD064668
:101AA00032460B461BA1684600F082FB694605A83A
:101AB000FEF75CFB6D1C282DE3DB694605A8FEF7ED
:101AC00055FB16A105A8FEF751FB05A914A000F0CF
:101AD0005FFB50B0BDE8F081100000207B22446520
:101AE000766963654944223A200000000400002022
:101AF000256400002C202250726573737572652274
:101B00003A205B00252E3366000000007B14AE47B0
:101B1000E17A843F2C252E33660000005D7D0000B5
:101B2000257300002DE9F04788B004460F460020D9
:101B3000A07060712046FEF73EFBC5B2E01CFEF7C8
:101B40003AFBC6B2601DFEF736FB00F0FF08FFF758
:101B5000B3FE00F5E14A01A9504601F0C3F803982D
:101B6000A84200DA26E00398A84203D10298B042C6
:101B700000DA1FE00298B04203D10198404500DA34
:101B800018E001A801F070F8114900EB010901A962
:101B9000484601F0A7F803950296CDF8048001A805
:101BA00001F062F8A0F5E1400A4941F8270008B0C9
:101BB000BDE8F08703950296CDF8048001A801F0F6
:101BC00053F8A0F5E140034941F8270000BFEEE7D4
:101BD000805101006400002010B500F001F810BD34
:101BE0000CB50020019000903348006840F480302C
:101BF0003149086000BF3048006800F400300090B0
:101C00000198401C0190009818B90198B0F5A06F98
:101C1000F1D12948006800F4003010B10120009093
:101C200001E0002000900098012843D1234800687B
:101C300040F01000214908600846006820F00300C9
:101C400008600846006840F0020008601A484068D2
:101C5000194948600846406848600846406840F4B2
:101C6000806048600846406820F47C104860084660
:101C7000406840F4E81048600846006840F0807012
:101C8000086000BF0C48006800F000700028F9D020
:101C90000948406820F0030007494860084640684A
:101CA00040F00200486000BF0348406800F00C00AC
:101CB0000828F9D10CBD00000010024000200240AD
:101CC00030B587B00446254600202871E871A87217
:101CD000687328742846FEF76EFA0590681DFEF7B3
:101CE0006AFA049005F10800FEF765FA039005F121
:101CF0000B00FEF760FA029005F10E00FEF75BFAAA
:101D0000019005F11100FEF756FA0090FFF76CFE06
:101D100000BF0120FFF7DAFD0028FAD0684600F086
:101D2000C5F8FFF761FE07B030BD704710B5134826
:101D3000006840F0010011490860084640681049F9
:101D400008400E494860084600680E4908400B49A3
:101D500008600846006820F4802008600846406853
:101D600020F4FE0048604FF41F008860FFF734FF46
:101D70004FF000600449086010BD000000100240F0
:101D80000000FFF8FFFFF6FE08ED00E010B50121AE
:101D9000880700F01FF840B104480068401C034960
:101DA00008600121880700F006F810BD100000202F
:101DB000CA4302827047CA430282704721B1028837
:101DC00042F00102028004E002884FF6FE731A40DE
:101DD0000280704730B50246002000230024158A97
:101DE00005EA0103958905EA010413B10CB101204C
:101DF00000E0002030BD1AB183890B43838102E0EB
:101E000083898B4383817047002202881D4B98424F
:101E10000ED01D4B98420BD0B0F1804F08D01B4B19
:101E2000984205D01A4B984202D01A4B984204D1DE
:101E30004FF68F731A404B881A43174B984207D0BE
:101E4000164B984204D04FF6FF431A40CB881A43F2
:101E500002808B8883850B8803850A4B98420BD0C0
:101E6000094B984208D00E4B984205D00D4B984232
:101E700002D00D4B984201D10B7A03860123838255
:101E800070470000002C0140003401400004004075
:101E900000080040000C004000100040001400400A
:101EA00000400140004401400048014070B5044634
:101EB000FFF7C2FCFFF798FD2046FFF7CBFA20465C
:101EC00000F0D2FEA0F5E1452846FFF76FFDFFF7D1
:101ED0008BFD70BD10B500BF40F22551144800F0D5
:101EE00096F860B11248001D0088C1B211480288FE
:101EF0000088401C0F4B18800F48815416E040F2B8
:101F000024410B4800F083F880B109480088C4B22E
:101F10000748001D0088C4B201200849087000204D
:101F20000549044A128888540249088010BD0000FF
:101F3000003801400C000020680100200E00002045
:101F400021B1828942F40052828104E082894DF6F7
:101F5000FF731A408281704700B585B001210420CB
:101F6000FFF76EFB01218803FFF76AFB4FF4007057
:101F7000ADF8100018208DF8130003208DF8120022
:101F800004A91A48FFF76BF94FF48060ADF8100010
:101F900004208DF8130004A91448FFF760F94FF4EA
:101FA000E13000900020ADF80400ADF80600ADF877
:101FB0000800ADF80C000C20ADF80A0069460C488A
:101FC00000F074F8FFF7B3FA012240F22441084808
:101FD00000F047F8012240F22551054800F041F891
:101FE00001210348FFF7ACFF05B000BD0008014028
:101FF0000038014002460020B1F5007F00D100BF4B
:1020000013880B400BB1012000E00020704770B531
:102010000246002400230025002040F66A16B14243
:1020200000D100BFC1F3421501F01F03012606FADB
:1020300003F3012D02D19689334006E0022D02D12F
:10204000168A334001E0968A33400C12012606FAC4
:1020500004F41688344013B10CB1012000E00020D4
:1020600070BDF0B50346002400260025002040F690
:102070006A17B94200D100BF1846C1F3421401F0FB
:102080001F06012707FA06F5012C01D10C3004E0E8
:10209000022C01D1103000E014301AB107682F4330
:1020A000076002E00768AF430760F0BD2DE9F04725
:1020B00086B005460E460024A24600BFA146002772
:1020C000B08900B100BF2F462C8A4CF6FF70044047
:1020D000F08804432C82AC894EF6F3100440B0889B
:1020E00031890843718908430443AC81AC8A4FF6B7
:1020F000FF400440B0890443AC8201A8FFF7C0FA56
:102100001F48874202D1DDF810A001E0DDF80CA0E5
:10211000A88900F4004040B10AEBCA0000EB0A10A5
:1021200031684900B0FBF1F807E00AEBCA0000EBA8
:102130000A1031688900B0FBF1F86420B8FBF0F0B8
:1021400004012009642101FB1089A88900F40040E2
:1021500040B1322000EBC900B0FBF1F000F0070005
:10216000044308E0322000EB09106421B0FBF1F0D9
:1021700000F00F0004432C8106B0BDE8F08700009A
:1021800000380140C1F308028280704700BFFEE7BB
:102190000FB4054B10B503A9044A029800F0F2F8F9
:1021A00010BC5DF814FB0000BD2A0008600100208F
:1021B0000FB4084B10B504A902AA039800F0E2F886
:1021C000044602A9002000F074FC204610BC5DF813
:1021D00014FB0000B32A0008004870476401002087
:1021E00002E008C8121F08C1002AFAD170477047E0
:1021F000002001E001C1121F002AFBD1704700003E
:102200002DE9FF5F82B00021DDE90430020DDDF829
:1022100040B0034318D044F61050A2F2FF324243BC
:102220001514119801281FD0A5EB0B00401C5FEA84
:10223000000A4FF000064E4FDFF83891B046504686
:1022400015D5CAF1000413E0119801244AA301280E
:1022500001D16FEA0B010298119AC0E90031C0E97F
:10226000024206B0BDE8F09FCBF10000DFE7044674
:102270000021404A491842EB0450CDE9001012E019
:10228000E00707D032463B4640464946FEF785F810
:102290008046894632463B4610461946FEF77DF891
:1022A00006460F466410002CEAD1DDE90401DDE9A1
:1022B0000023BAF1000F06DAFEF76FF842464B46EC
:1022C000FEF76BF805E0FEF7DAF842464B46FEF7FC
:1022D000D6F804460E460022284BFEF757F903D8DD
:1022E0004FF0FF30014607E00022254B20463146E3
:1022F000FDF7ACFFFEF7A0FA102409E0002C0ADB82
:102300000A220023FEF77AF9039B30321A55641E25
:1023100050EA0102F2D1641C039AC4F1110314447F
:10232000119A012A03D0012208430DD10AE0084383
:1023300004D000204FF0110B119072E7A3EB0B05B6
:102340006D1E0DE05B4504DD4FF0000205F1010557
:1023500004E003DA4FF00002A5F10105002AECD0F9
:1023600002981199C0E90231C0E9004579E70000FF
:10237000000014400000F03F300000000000F04377
:102380000000E03F2DE9FF4F95B09B468946064689
:1023900000250FE2252877D100242746F84A01219D
:1023A000059400E0044316F8013F203B01FA03F0D6
:1023B0001042F7D130782A2811D06FF02F033078EF
:1023C000A0F13002092A16D8059A44F0020402EB63
:1023D000820203EB42021044761C0590EFE759F8A5
:1023E000042B0592002A03DA504244F4005405906D
:1023F00044F00204761C30782E2816D116F8010F0E
:1024000044F004042A280DD06FF02F023078A0F198
:102410003003092B09D807EB870302EB4303C718E6
:10242000761CF3E759F8047B761C30786C280FD0C3
:1024300006DC4C2817D068280DD06A2814D104E097
:10244000742810D07A280FD10DE044F400140AE06B
:1024500044F4801401E044F440147278824202D1C2
:1024600004F58014761C761C307866280BD013DCBB
:10247000582877D009DC002875D04528F6D04628A2
:10248000F4D047281AD19DE118E0632835D064289C
:1024900079D0652812D195E1702873D008DC6728BF
:1024A000F1D069286FD06E280DD06F2806D1B5E025
:1024B00073282CD0752875D0782874D05A4617996F
:1024C00090476D1C75E1C4F30250022809D003281F
:1024D0000DD0D9F8001004280DD00D6009F10409C1
:1024E00067E1D9F80010EA17C1E90052F6E7D9F818
:1024F00000100D80F2E70D70F0E719F8041B8DF85D
:10250000001000208DF80100EA46012003E059F890
:1025100004AB4FF0FF3061074FF0000102D40DE033
:1025200008F101018846B9420FDA8045F8DB1AF854
:1025300008100029F4D108E008F101018846814221
:10254000FADB1AF808100029F6D105985B46A0EBD3
:10255000080721463846179A00F094FA284400EB01
:10256000080507E04DE029E10DE01AF8010B5A4695
:1025700017999047B8F10108F7D25B4621463846D3
:10258000179A13E142E00A220092C4F302524FF07C
:10259000000A022A08D059F804CB032A4FEAEC714A
:1025A0000AD00DE029E02AE009F1070121F0070235
:1025B000F2E802C1914609E00FFA8CFC4FEAEC7197
:1025C000042A03D14FFA8CFC4FEAEC71002907DA98
:1025D0000A460021DCF1000C61EB02012D2202E031
:1025E000220504D52B228DF80420012203E0E20706
:1025F00001D02022F7E7904659E00A2102E010229C
:102600000DE010214FF0000A00910BE010224FF076
:10261000000A44F004040827009203E008224FF067
:10262000000A0092C4F30252022A05D059F804CBE2
:102630000021032A08D009E009F1070121F007026F
:10264000F2E802C1914605E01FFA8CFC042A01D190
:102650000CF0FF0C4FF00008220728D5702806D098
:10266000009B83F0100353EA0A0305D00EE04022DA
:102670008DF80420012208E05CEA010206D0302235
:102680008DF804208DF8050002229046009B83F00F
:10269000080353EA0A030AD15CEA010201D1620786
:1026A00005D530228DF804204FF001087F1E5828F0
:1026B00004D034A003900EA802900DE036A0F9E7F4
:1026C00053466046009AFDF799FF84460398825C62
:1026D0000298401E029002705CEA0100F0D102985C
:1026E00006A9081A00F1200A600702D524F48034F4
:1026F00000E00127574502DDA7EB0A0000E00020BB
:1027000000EB0A01009005984144401A0590E0034F
:1027100006D45B462146179A059800F0B3F90544A4
:10272000002706E001A85A46C05D179990476D1C26
:102730007F1C4745F6DBE0030CD55B462146179A24
:10274000059800F09FF9054404E030205A46179997
:1027500090476D1C0099481E00900029F5DC08E0A8
:10276000029802995A460078491C0291179990479D
:102770006D1CBAF10001AAF1010AF1DC65E100006B
:102780000928010030313233343536373839616247
:10279000636465660000000030313233343536370B
:1027A00038394142434445460000000000F058F9E2
:1027B0000544761C307800287FF4ECAD19B028462B
:1027C000BDE8F08F620700D4062709F1070222F066
:1027D000070CFCE80223E14603F000485FEA080C1E
:1027E00002D00FF2702C0DE05FEA045C02D50FF20C
:1027F000682C07E05FEAC47C02D00FF2602C01E095
:10280000AFF2700C4FF0FF3823F00043CDF850C00A
:1028100065280CD006DC452809D046281DD047285D
:102820003DD13DE0662818D067287ED138E00021F0
:10283000112F01DB112000E0781CCDE9000106A971
:102840000EA8FFF7DDFCDDE90F010E9A03910021D0
:10285000009207F1010A04914DE04FF0004000970B
:10286000CDE9011006A90EA8FFF7CAFCDDE90F02A9
:1028700003920E9B11990022DDF80CA000930492A4
:1028800011B9791C00EB010AB7EB0A0004D4C0F1BE
:10289000FF3007F1010A0490AAEB0700019044E021
:1028A000012F00DA01270021112F01DD112000E0A6
:1028B0003846CDE9000106A90EA8FFF7A1FCDDE925
:1028C0000F010E9A0391002104910092BA4621074C
:1028D0000CD40399514500DA8A46BAF1010F05DD9F
:1028E000009AAAF10101515C302908D0B84202DAFD
:1028F00010F1040F06DA0121CDE9011015E0AAF16B
:102900000101E9E7002805DC049901440491AAEBE0
:10291000000102E0411C514500DD8A460499401A3D
:10292000401C01904FF000400290200704D4019811
:10293000504501DBCDF8048000208DF84F0002984F
:102940000DF14F07B0F1004F25D02B200E900298CB
:102950004FF0020800280CDA404202902D200E9021
:1029600007E00A210298FDF733FE3031029007F8A4
:10297000011DB8F10001A8F10108F2DC029800285D
:10298000EFD1791E0E980870307800F0200040F0EA
:10299000450007F8020D12A8C01B00F107081498A3
:1029A000007800B1012000EB0A01019801EBE07111
:1029B00005984144401A401E0590E00306D45B464A
:1029C0002146179A059800F05DF8054414980078A0
:1029D00018B15A46179990476D1CE00324D55B4601
:1029E0002146179A059800F04DF805441CE004981C
:1029F000002807DBDDE90301884203DD0098405C25
:102A0000179901E0179930205A469047049805F12C
:102A10000105401C04900198401E019004D12E2015
:102A20005A46179990476D1CBAF10001AAF1010AA4
:102A3000DDDC05E017F8010B5A46179990476D1C2D
:102A4000B8F10001A8F10108F4DC5B462146179AB1
:102A50000598ABE62D0000002B00000020000000D0
:102A60002DE9F041044600251E461746880404D48B
:102A700005E039462020B0476D1C641EF9D5284674
:102A8000BDE8F0812DE9F041044600251E46904640
:102A9000C80301D5302700E02027880404D505E0CD
:102AA00041463846B0476D1C641EF9D52846BDE83E
:102AB000F0810A68531C0B601070704770B50446B3
:102AC0000D46E1B20548FFF75DFB00BF80210348DA
:102AD000FFF790FA0028F9D0204670BD0038014079
:102AE000A8B0002600240027FEF778FBFEF73AFF87
:102AF0004E48FEF761FEFEF73BF8FEF7B7F8FEF72B
:102B0000F7FCFEF73BFC4FF400514948FEF732FC5E
:102B1000FFF722FA002240F225514648FFF7A1FABA
:102B200045480368454802684548016845480068CB
:102B3000FEF702FA012240F225513E48FFF791FAD2
:102B40004FF400513A48FEF717FC00203E49086058
:102B50006BE03D480068B0F5FA7F3FD900203A4964
:102B600008603A480088FDF7F9FC80463849FDF7CF
:102B70002FFB05463846791CCFB24DF82050641023
:102B8000344801682846FDF719FD01D244F080045D
:102B9000E02C0EDD6EB96846FEF744FF002003E02E
:102BA00000214DF82010401C2828F9DB00270126C1
:102BB00014E0102C12DA012E10D16846FEF732FF15
:102BC000002003E000214DF82010401C2828F9DBEC
:102BD0000027002640212048FEF7CCFB1F48006854
:102BE000012808D100201D490860012E03D1402191
:102BF0001948FEF7C1FB1A480078012807D10020C8
:102C0000174908701748FEF737FAFEF779F8282FAA
:102C10000BD16846FEF706FF002003E000214DF8C7
:102C20002010401C2828F9DB002792E72C00002008
:102C30000010014000380140240000202000002046
:102C40001C0000201800002010000020740000204C
:102C50000020804528000020000C0140AC0000202E
:102C60000E0000206801002010B501460869801E92
:102C70000861002805DC08690C3008614869401EBD
:102C800048616423486990FBF3F04A69D31702EB6B
:102C90009373C0EBA3004FF4C87492FBF4F30344A6
:102CA00040F26F14086960430C2490FBF4F0184460
:102CB000CB68034440F26D1402FB0430084BC01A89
:102CC00000EB40008B6803EBC000C0EB00104B68CA
:102CD00003EB8000C0EB00100B6803EB800010BD1D
:102CE0008BFA0A002DE9F04107460C462E48B7FB47
:102CF000F0F6B7FBF0F100FB11784FF4616098FB40
:102D0000F0F0A0604FF4616098FBF0F100FB1180DF
:102D10003C2190FBF1F060604FF4616098FBF0F1B2
:102D200000FB11803C2190FBF1F201FB12002060BE
:102D300040F2B27509E005F0030010B94FF4B77026
:102D400001E040F26D10361A6D1C05F0030010B959
:102D50004FF4B77001E040F26D10B042EBDD6561F9
:102D60006069C11700EB91718910A0EB810111B965
:102D70001D200E494860012505E0681E0B4951F8E9
:102D80002000361A6D1C681E084951F82000B04218
:102D9000F3DD1C2048602561701CE0602046FEF7D2
:102DA00059FBBDE8F081000080510100780000204F
:102DB000000000001F0000003B0000005A0000005F
:102DC0007800000097000000B5000000D40000006B
:102DD000F300000011010000300100004E0100006E
:102DE000004040404040404040404141414141401E
:102DF00040404040404040404040404040404040D3
:102E00004005020202020202020202020202020261
:102E10000220202020202020202020020202020266
:102E200002029090909090901010101010101010BE
:102E300010101010101010101010101002020202CA
:102E4000020288888888888808080808080808080E
:102E5000080808080808080808080808020202020A
:102E600040000000E12D00083137352E32342E3776
:102E7000362E3631000000004A696D486F74737059
:102E80006F740000536E616B65000000486F7273D1
:102E90006500000050696700446F67004472616715
:102EA0006F6E00005469676572000000526F6F73A7
:102EB0007465720052617400476F61740000000015
:102EC00052616262697400004F7800004672696462
:102ED000617900004D6F6E646179000053756E6416
:102EE00061790000536174757264617900000000BB
:102EF0005765646E6573646179000000547565738D
:102F0000646179005468757273646179000000002F
:102F10004D6F6E6B65790000BBA20000C5A3000079
:102F2000BCA60000B9B70000D2BB0000CDC30000B2
:102F3000CBC40000C8D50000C9DF0000CEE500000A
:102F4000C2ED0000D6ED0000BAEF0000D1F20000A3
:102F5000CAF30000C1F90000C1FA0000C8FD00007A
:102F6000B6FE0000842F0008000000206801000069
:102F70006E0900083C300008680100209005000040
:102F8000F02100084102130213782E2A08041A685F
:102F9000042331D4C5CDCCCC3D5A010463D00732D3
:102FA0000F0A15051C9AFF0181321F5A1C08DA1EF0
:102FB000080912148113342F1B0828041A60041AFC
:102FC0005C041A30041A3C041A54041A44041A50BB
:102FD000041A1C041A18041A2C041A58041A380467
:102FE0001A40041A4C041A48041A20041A24041A19
:102FF000DCDC1AD4041AFC041AF0041A04141ACCE7
:10300000081AE4041A94041AB4041AC8041AA4048A
:103010001AC0041A9C041A84041A8C041AB8041ADC
:1030200010301AAC081A980429F039FC2C02030459
:0C303000048009060708090204060800D5
:04000005080000ED02
:00000001FF
