:020000040800F2
:10000000580A0020090200081129000809290008DF
:100010000D290008D9210008F53300080000000070
:10002000000000000000000000000000952D000806
:100030002524000800000000C92900089F3000089E
:1000400023020008230200082302000823020008FC
:1000500023020008230200082302000823020008EC
:1000600023020008230200082302000823020008DC
:1000700023020008230200082302000823020008CC
:1000800023020008230200082302000823020008BC
:1000900023020008230200082302000823020008AC
:1000A000230200082302000823020008230200089C
:1000B000230200082302000823020008230200088C
:1000C000230200082302000823020008230200087C
:1000D000230200082302000823020008230200086C
:1000E00023020008230200082302000800F002F89F
:1000F00000F07BF80AA090E8000C82448344AAF147
:100100000107DA4501D100F070F8AFF2090EBAE844
:100110000F0013F0010F18BFFB1A43F0010318473B
:10012000583D0000783D00000A444FF0000C10F8E4
:10013000013B13F0070408BF10F8014B1D1108BF65
:1001400010F8015B641E05D010F8016B641E01F805
:10015000016BF9D113F0080F1EBF10F8014BAD1C55
:100160000C1B09D16D1E58BF01F801CBFAD505E073
:1001700014F8016B01F8016B6D1EF9D59142D6D3CD
:10018000704700000023002400250026103A28BFF5
:1001900078C1FBD8520728BF30C148BF0B607047F9
:1001A000662903F06F85642900F09880732900F0B8
:1001B000AE84002070471FB59DE8030001F0A8F849
:1001C00000F000FD04000020002103F0B5FA401CFF
:1001D00060600020002103F099FAE06000F042FE28
:1001E0001FBD10B500F0A7FE10BD00F00AFF1146BC
:1001F000FFF7E1FF03F02EF901F01CF803B4FFF75D
:10020000F0FF03BC01F0F6F90948804709480047B0
:10021000FEE7FEE7FEE7FEE7FEE7FEE7FEE7FEE7B6
:10022000FEE7FEE704480549054A064B7047000013
:10023000A1300008ED00000858040020580A0020F2
:1002400058060020580600200FB4044910B503AA30
:10025000029800F061FC10BC5DF814FB5003002014
:100260000FB41CB5074B06AA7B446946009005985D
:1002700000F023FC0020694600F032FC1CBC5DF855
:1002800014FB00007508000070B50C460546012AF5
:1002900005D02878800600D5EA69002302E0012312
:1002A00005E05B1C934202D2E05C0028F9D1A8690A
:1002B000E618C01AA861286A184428622846AFF3D5
:1002C000008004E0D5E9012114F8010B9047B44205
:1002D000F8D32846AFF3008070BD00002DE9F0414F
:1002E0000646002410687529314616A510D0AFF3D4
:1002F0000080002802DA404213A507E031688A072F
:1003000001D512A502E0490704D511A5012401E099
:10031000AFF3008000210A2206F1240709E0B0FBB8
:10032000F2FCB0FBF2F302FB1C00303078541846AC
:10033000491C0028F3D123462A463046BDE8F04147
:1003400000F04EB9000000002D0000002B0000005E
:10035000200000002DE9F05F894604464FF0000AB6
:10036000DFF824B1FB44C0F820A02046E1688847AC
:1003700000287DD0252806D0D4E901219047206AA5
:10038000401C2062F1E700255F462046E16888476F
:100390002028064607DB312E05D2B81910F8200CAC
:1003A00008B10543F1E7A80701D525F00405C4F815
:1003B0001CA00027C4F818A02A2E09D0304603F04C
:1003C0002FF838B304EB8708303EC8F8186019E0FE
:1003D00059F8041B204604EB87029161E1688847C5
:1003E000012F064618D1E069002820DA25F0200503
:1003F0001DE0D8F8180000EB800006EB4000303814
:10040000C8F818002046E1688847064603F008F857
:100410000028EED1012F0AD02E2E08D12046E16807
:1004200088477F1C0646022F45F02005C4DBA069E3
:10043000002803DA404245F00105A061E80701D039
:1004400025F01005A6B1A6F14100192802D82036E2
:1004500045F400654A463146204625604D46FFF783
:100460009FFE60B1012807D0ED1D25F0070000E0D8
:1004700007E000F1080978E705F1040975E730465F
:100480007AE7206ABDE8F09F5039000070B5064653
:1004900000F0A2F80468054630460A22002100F068
:1004A0004DFB2C6070BD30B505460B462A4613F84F
:1004B000014B12F8010B08B1A042F8D01CB1002882
:1004C00002D06D1CF1E7284630BD10B5431C02E098
:1004D00010F8011B71B18107FAD14FF0013202C847
:1004E0008C1A8C4314EAC211F9D0C01A0A0603D040
:1004F000C01E10BDC01A10BD0A0401D0801E10BD60
:100500000902FCD0401E10BD421E12F8013F002B14
:10051000FBD111F8013B002B02F8013BF9D17047E8
:1005200010B5203AC0F00B80B1E81850203AA0E88E
:100530001850B1E81850A0E81850BFF4F5AF5FEAC2
:10054000027C24BFB1E81850A0E8185044BF18C975
:1005500018C0BDE810405FEA827C24BF51F8043B1C
:1005600040F8043B08BF7047D20728BF31F8023B70
:1005700048BF11F8012B28BF20F8023B48BF00F804
:10058000012B70474FF0000200B513469446964683
:10059000203922BFA0E80C50A0E80C50B1F1200196
:1005A000BFF4F7AF090728BFA0E80C5048BF0CC044
:1005B0005DF804EB890028BF40F8042B08BF7047A2
:1005C00048BF20F8022B11F0804F18BF00F8012B14
:1005D000704770477047704700487047F803002025
:1005E0002DE9F0470D4699469246044600F124084D
:1005F0000168880604D5E06921F01001216000E05F
:100600000120A84201DD471B00E00027A1697A19FB
:1006100002EB0900081AA0612078C00602D4204627
:10062000AFF30080002608E0D4E901211AF80600A3
:100630009047206A401C761C20624E45F4DB2078EF
:10064000C0060AD52046AFF3008006E0D4E90121B8
:1006500030209047206A401C2062381EA7F1010715
:10066000F4DC07E0D4E9012118F805009047206A7E
:10067000401C2062281EA5F10105F3DC2046AFF3E3
:1006800000802078000602D50220BDE8F087012016
:10069000FBE770472DE9FF4F0C461E464FF0FF3732
:1006A0008BB0D2E90001DDF860800A908A46C1F380
:1006B0000A5505B93D46002108464FF00000BAF141
:1006C000000F00F4400005DA00EB80004FF4400119
:1006D00001EA50004FEA9059B9F1010F00DDB94627
:1006E0000A9850EA4A000ED044F61050A5F2FF35A1
:1006F00045432F14B8F1000F1ED07542291E1EDD90
:10070000C9F100021CE0B8F1010F4FF0000001D068
:10071000302103E0F24305E02154401CB042FBDBF2
:1007200030460022002121540B99C1F80880C1E90C
:1007300000200FB0BDE8F08FBD1B6D1CDEE74A4600
:1007400000DA694206A800F017FB06AB93E8070041
:1007500003AB83E8070050460A9900F0E3FF8DE8F9
:100760000700A0F500501F3800900398002D0ADD07
:1007700042F21F014A460844002303A90390684639
:1007800001F04CFA09E0A0F500504A461F3800235A
:1007900003A90390684601F056FA8DE807000004AB
:1007A000000C03D04FF0FF30410800E01046B8F1D4
:1007B000000F03D00022009215461EE0751E05D4DE
:1007C00000F004FA303262556D1EF9D5B3460122AD
:1007D000084302D000227F1C04E02078302801D199
:1007E00000227F1E002A099784D01DE0112D07DA10
:1007F00000F0ECF9303262556D1C50EA0102F5D17F
:10080000084302D00098C8B10EE00021681E05E040
:10081000235C625C63542254401E491C8142F7DB16
:10082000AB46A81B401E0990002004F80B000B9853
:10083000099AC0F80880C0E9002B7AE711264FF02A
:10084000000857E72DE9F04F88460446D21D22F0F4
:10085000070191B0D1E90001CDE90A0102F0CCFD18
:1008600002460B98C00F01D02D2007E020688107B9
:1008700001D52B2002E0202101EAC000032A0990C3
:1008800001D0072A05DB03464146204600F0E4F983
:100890000BE12078800601D5E06900E00620B8F180
:1008A000650F814606D0B8F1660F18D0B8F1670F12
:1008B00070D131E00020B9F1110F009001DB11235C
:1008C00001E009F101030AAA01A90CA8FFF7E2FE61
:1008D000DDE90C70002609F10105834647E001209F
:1008E0004B4600904FF000470AAA01A90CA8FFF759
:1008F000D1FEDDE90DB00C995D46002610B909F175
:1009000001000D18B9EB050003D4C0F1FF3609F161
:100910000105A5EB09002BE0B9F1010F01DA4FF059
:1009200001090020B9F1110F0090484601DD1123A3
:1009300000E003460AAA01A90CA8FFF7ABFEDDE917
:100940000C704D4600268346207800070AD4AB453C
:1009500000DA5D4601A8012D04DD411911F8011CE2
:10096000302907D04F4502DA17F1040F04DA0120CD
:1009700082460FE06D1EEEE7002F02DCED1B3E44C9
:1009800003E0781CA84200DD7D1CB81B00F1010AC1
:100990004FF000472078000703D4AA4501DB4FF051
:1009A000FF3A0021B7F1004F0DF143088DF84310D5
:1009B00024D002202B23002F01DA7F422D230A218D
:1009C000021EA0F1010000DC5FB197FBF1FC97FB78
:1009D000F1F201FB1C7C17460CF1300C08F801CD3C
:1009E000EEE7A8F1010003702188090501D5452132
:1009F00000E06521A0F1010800F8011C09980FA989
:100A0000A1EB0807FF1D00B10120411901EBEA70BD
:100A1000A1693844081A401EA0612078C00602D49B
:100A20002046AFF30080099828B1D4E9012190470E
:100A3000206A401C20622078C00622D52046AFF3F1
:100A400000801EE0002E04DBB34502DD01A8805DBE
:100A500000E03020D4E901219047206A401C206248
:100A6000761CAAF101005FEA000A0AD100F0AAF898
:100A7000C0680168405CD4E901219047206A401CAD
:100A80002062281EA5F10105DCDC07E0D4E9012184
:100A900018F8010B9047206A401C2062381EA7F10D
:100AA0000107F3DC2046AFF30080032011B041E6DC
:100AB00001694A1C02610878704700B58FB0CDE922
:100AC00001310021059105497944CDE90310114612
:100AD0006846FFF73FFC0FB000BD0000E5FFFFFFD9
:100AE0000A6802F8010B0A60704710B5436913B138
:100AF000AFF3008001E0FFF7C7FB012010BD1278C3
:100B000000F124010A7000224A700122EDE7116809
:100B10004FF0FF32E9E70000074B70B50D467B440C
:100B2000FFF7CBFF0446284600F098F910B14FF0CC
:100B3000FF3070BD204670BD0F2900002DE9F04741
:100B400091460F4680460446002614F8015B2DB1FD
:100B500000F030F80068405DC007F6D12B2D02D0C0
:100B60002D2D18D0641E4A463946204600F0B4F8B0
:100B700027B13968A14201D1C7F800804FF00204C3
:100B800071050BD54042002803DDFFF725FD046009
:100B9000A007BDE8F08746F48066E4E70028F8DAAD
:100BA000FFF71AFD04606FF00040F2E7004870475D
:100BB000F803002010B500F005F8001D10BD00BFBF
:100BC000792B0000004870471804002030B5B0F1C0
:100BD0000A024FEA900E71F100034EEA817EB0EBFB
:100BE0000E0061EB91014FEA101E4EEA017E10EB00
:100BF0000E0041EB11114FEA102E4EEA016E10EB80
:100C00000E0041EB11214FEA104E4EEA014E10EB5F
:100C10000E0041EB1141401841F100014FEAD000B4
:100C200040EA41704FEAD10110EB80054FEA8104A0
:100C300044EA907444EB01046D1944EB0404521B24
:100C4000A3414FF0000348BF0A3200D530BD401C1D
:100C500041F1000130BD00002DE9F0411F4604467E
:100C600003260168072A01F4006004DB08B116A519
:100C700005E016A503E008B115A500E015A521F0D3
:100C800010002060A069C01EA0610FB1401EA061CD
:100C90002046AFF300804FB1D4E901213846904798
:100CA000206A401C2062C01C206206E0206AFAE72D
:100CB000D4E9012115F8010B9047761EF8D22046A1
:100CC000AFF30080BDE8F0814E414E006E616E00D2
:100CD000494E4600696E66002DE9F05F8246154672
:100CE0008B4600270AF10104B9460078302801D06C
:100CF0009DB113E014F8010B0127782803D0582880
:100D000001D045B10AE00DB1102D07D1002714F82C
:100D1000010B102502E0082500E00A250026B04658
:100D20000EE005FB080005FB06F101271FFA80F81D
:100D300001EB1046B6F5803F00D3B94614F8010B1D
:100D4000294600F0AAF90028EBDABBF1000F05D024
:100D50000FB1641E00E05446CBF80040B9F1000F1B
:100D600006D0FFF739FC02210160C81EBDE8F09FE4
:100D700048EA0640FAE700002DE9F04781461646AA
:100D80008AB0354878440DC88DE80D003248784463
:100D9000801C03AC0DC884E80D0041F69B3008446C
:100DA000372190FBF1F290FBF1F5A5F1800501FBF5
:100DB00012041B3C02D56442012000E00020DFF851
:100DC00098A080460027FA44AAF1BE0A0EE0E00788
:100DD0000AD03246684607EB470101230AEB81013E
:100DE00000F031FF8DE8070064107F1C002CEED16D
:100DF000194F7F44AE3F19E0E80715D007EB041008
:100E00000DF1180A90E80E008AE80E00C068F04262
:100E100001D1981908903246012306A903A800F0D1
:100E200012FF03AB83E807006D10641C002DE3D1B3
:100E30004FF0010332466946B8F1000F03A802D013
:100E400000F0ECFE01E000F0FEFEC9E90001C9F887
:100E500008200AB0BDE8F087C02F0000007B00F03A
:100E60008000704710B542485421FFF78BFB414882
:100E70005421FFF787FB40485421FFF783FB3F498C
:100E80003B483C4A3F4B08603D490A603A4919607B
:100E9000531C0365481C1065012008653B48344A13
:100EA00039A1784400F02AF920B9384878440A3842
:100EB00000F0C9F937482F4A35A1784400F01EF9EF
:100EC00020B9344878440A3800F0BDF932482A4A3B
:100ED0002FA1784400F012F920B92F4878440A383D
:100EE00000F0B1F940232248DC000021224600F046
:100EF000E2F820B125487844543800F0A4F91D48A0
:100F000022464023002100F0D6F820B12148784441
:100F1000543800F098F9184822461023002100F0B8
:100F2000CAF8002806D01C487844BDE8104056385E
:100F300000F089B910BD104870B5006D20F00104B3
:100F40000B4800F051F90B4800F04EF90A4800F048
:100F50004BF909E0206D20F00105204600F044F92E
:100F6000204600F073F82C46002CF3D170BD000031
:100F7000FC02002050030020A40300206001002098
:100F8000640100206801002072000000BA2E0000F9
:100F900077000000A62E0000922E00000EB5CDE9CD
:100FA0000001FFF792FA029069460120ABBE0EBD28
:100FB00008B5694600900220ABBE08BD1FB58DE89C
:100FC000070069460520ABBE04B010BD1FB58DE813
:100FD0000F0069460620ABBEF6E708B569460090EB
:100FE0000920ABBE08BD1CB5CDE9000169460A2049
:100FF000ABBE1CBD704708B5694600900C20ABBE67
:1010000008BD7546FFF7D2FDAE460500694653465A
:1010100020F00700854618B020B5FFF703F9BDE8BA
:1010200020404FF000064FF000074FF000084FF04F
:10103000000B21F00701AC46ACE8C009ACE8C009E0
:10104000ACE8C009ACE8C0098D46704770B50446ED
:10105000051F00F041F90068002C14BF446870BD02
:10106000002C18BFAC423CBF20466468F8D301682E
:101070000A18AA4218BF456003D12A6805461144E0
:10108000016028684119A1421CBF6C6070BD616895
:10109000696021680844286070BD3A2800D2303861
:1010A00020F02002412A01D3A2F13700884201D367
:1010B0004FF0FF30704770B5C468A50713D06502C4
:1010C00011D4B2F5807F09D0B2F5007F06D0B2F519
:1010D000806F08D1012300F1240106E05D1E6FF04E
:1010E0007F46B54201D3012070BD0161C3614160FB
:1010F00024F470611143C160002070BD2DE9F041FE
:101100000C4607461646104600F06EF82078611C23
:1011100061280AD0722802D077283CD102E001254C
:10112000002405E00225042402E0082448F2020518
:1011300011F8010B2B2806D0622809D011F8010CF8
:1011400074280AD00BE045F0030544F00204EFE7F1
:1011500045F0040544F00104EAE744F01004384681
:101160002146FFF71BFF411C15D000213161716042
:101170004FF40071F560F1617061200704D53046CD
:101180000222002100F022F9306D40F001003065AC
:101190003046BDE8F0810020FBE72DE9F0410D4627
:1011A0000646104C206DC10704D0410804D020F041
:1011B0000104F7E722460EE0542000F0D8F80700BB
:1011C0000ED0206D47F001010843542120653846B8
:1011D000FFF7D8F93A4629463046BDE8F0418DE799
:1011E0000020D6E7FC0200202DE9F04704464FF02E
:1011F00000094FF0FF37C568D4E90486A80707D077
:10120000204600F093F93046FFF7D2FE002802DABC
:101210003846BDE8F087280502D54046FFF716FF9F
:101220004C212046FFF7AEF9206D20F0010020652B
:101230004846EEE710B50446AFF300802046BDE80F
:101240001040FEF7DBBF10B500F0BAF9BDE8104062
:1012500000F0B0B94FF0013C50F8042B51F8043BBA
:101260009A4221D1A2EB0C03934313EACC1317D17A
:1012700050F8042B51F8043B9A4215D1A2EB0C0311
:10128000934313EACC130BD150F8042B51F8043BD1
:101290009A4209D1A2EB0C03934313EACC13DBD09F
:1012A0004FF00000704700BFD01A01BAB1FA81F1C7
:1012B00001F0180122FA01F0CB40C1F12001DBB2AC
:1012C000C0B2C01A2CFA01F3D11A914311EAC3112A
:1012D000E6D17047704700000048704700040020C6
:1012E000704770477047704738B504460A4600207B
:1012F0006946AFF30080002808BF38BD0246009958
:10130000204600F084F9012038BD012000F0D3B957
:10131000F8B5AFF30080054600200C46102000BF52
:101320000646A819A0420DD9324669460020AFF3FF
:101330000080070008BF00F0BEF90098A04218BF67
:101340000546C419FFF7C8FF05600746F01D20F0E9
:1013500007004619284600F053F9B44208BFF8BD0B
:10136000A21B31463868BDE8F84000F050B970B5AE
:101370000646FFF7B1FF056806F10B0020F00704F1
:10138000B4429CBF002070BD2B466A68BAB1106899
:10139000A04210D304F1080188423CBF5068586055
:1013A00007D35168101941601168091B016058602A
:1013B0001460101D70BD13465268002AE7D1214603
:1013C0002846FFF791FF0028DED170BD2DE9F041DE
:1013D000044616460D464769007B80072ED03846E6
:1013E000FFF7FBFD50BB3EB3012E02D0022E25D1EC
:1013F00004E0204600F025F905441DE03846FFF7DB
:10140000FAFDE168002841F01001E16005DA2046AC
:1014100000F058F80120BDE8F081C9030BD56268DF
:10142000E16A914200D81146A26911442269891AE1
:10143000814200DD08460544002D01DA0220EAE77A
:10144000E16A6068E268814206D29103E06203D5F6
:1014500022F4003141F01002A6690027AE4213DCED
:10146000E16A814201D90B4600E0034603EB060C1A
:101470002369ACEB030CAC4506DD814201D98C46F7
:1014800000E084469C4505D1A760276042F020001B
:10149000A5620DE0AD1BE669AE1B8142A66000D9D6
:1014A0000846C01A281A20605819606022F02000EF
:1014B00003490840E060002084F84870ABE7000072
:1014C000BFCFD7FFC16821F4001141F08001C16096
:1014D00000218160016070472DE9F0478146144684
:1014E0000E464FF0FF383248D5685769054209D09B
:1014F0003846A169FFF777FD002811DB2C48C0436F
:101500000540E5602B46324649463846FFF756FD12
:10151000A16920F00042B21A11440028A16103D051
:101520002046FFF7CFFF4046BDE8F08770B5044680
:101530000569C06A6168884200D80846E16821F4FC
:101540002011E160C90312D5A84208D02246411BF0
:101550002846FFF7C1FF10B14FF0FF3070BD0020EB
:10156000E562C4E90150E06820F48030E0600020CA
:1015700070BD10B50446C06820F02000E060A16A8C
:10158000A06988420DD02046FFF7D0FFE06820F424
:10159000405040F01000E060A06AA0612069E06265
:1015A000606044F24001E0688843E06010BD0000E4
:1015B00010000200002801D000F01CB870470000A5
:1015C00010B5014602A000F05DF8012010BD00003A
:1015D00053494752545245443A20526564697265F2
:1015E00063743A2063616E2774206F70656E3A20D1
:1015F0000000000001491820ABBEFEE726000200F3
:1016000000210160C0E901107047102070470346B7
:1016100040688C46002818BF88423CBF034640689B
:10162000F8D318681844884207D00CF1030020F062
:101630000700001D411A521A0146081D0A60FFF7F3
:1016400005BD10B50146C268900703D0900607D5C6
:10165000886A0AE0FEF7C0FF01210160881E10BD04
:101660008B69486818440B69C01A91F848301BB15F
:1016700091F84910401A10BD1103FCD50028FADD7D
:10168000401E10BD70B505460C460A2000E06D1CDA
:1016900000F018F835B128780028F8D102E0641C71
:1016A00000F010F814B120780028F8D1BDE870409F
:1016B0000A2000F007B810B500F00CF8BDE81040A3
:1016C000FFF778BF08B569468DF800000320ABBE70
:1016D00008BD000010B5012805D0002103A0FFF7C8
:1016E000D1FF012010BD09A1F8E70000534947527E
:1016F000544D454D3A204F7574206F6620686561E2
:1017000070206D656D6F7279000000003A204865A9
:101710006170206D656D6F727920636F7272757084
:10172000746564005FEA400C08BF91F0000F4FEA57
:101730008C234FEAC12243EA51514FEA1C5018BF93
:1017400000F5F0404FEA300018BF41F000415FEA79
:101750006C5C00F02980BCF1FF3F08BF40F0804086
:101760007047130C06BF12044FF0100C4FF0000C22
:10177000130E04BF12020CF1080C130F04BF120168
:101780000CF1040C930F04BF92000CF1020CD30F68
:1017900004BF52000CF1010C11464FF00002A0F101
:1017A0001F00A0EB0C00704711F0004F08BF7047FE
:1017B00031F000413FF4D5AF0B0C06BF09044FF0E8
:1017C000100C4FF0000C0B0E04BF09020CF1080CBA
:1017D0000B0F04BF09010CF1040C8B0F04BF89002F
:1017E0000CF1020CCB0F04BF49000CF1010CCCF141
:1017F0002003A0EB0C0022FA03F302FA0CF241EAF8
:10180000030100F10100704720F07F4C80EA0300E3
:1018100023F07F47ACEB070303F57C5300F0004057
:1018200003F1FF032DE980494FEA154B09B44FEA54
:10183000144325EA0B4E24EA03480FF2042606EB74
:10184000132749083E785FEA320203FB0667C7F5B3
:10185000000707FB06F64FEA54374FEAD64606F173
:10186000020607FB066CCCF1005C4FEA1C472CEA31
:10187000074C07FB06F40CFB06F504EB15464FEA94
:10188000961634BF00204FF000404FEAD13706FBD8
:1018900007FC4FEA1C4C0CFB0BF7D21B03FB0CF7AD
:1018A00061EB07010CFB0EF7B0EB074072EB174240
:1018B0000CFB08F734BFA2EB0742B2EB074261EB27
:1018C00017414FEA0C444FEA910706FB07FC4FEA29
:1018D0001C4C0CFB0BF7B0EBC74072EB573203FB11
:1018E0000CF734BFA2EBC742B2EBC74261EB5731F2
:1018F0000CFB0EF7B0EBC70072EB57720CFB08F74E
:1019000034BFA2EBC702B2EBC70261EB5771039F72
:101910004FEA816141EA921104EBCC044FEAD137DE
:101920004FEA826206FB07FC42EA90124FEA8060AF
:101930004FEA1C4C0CFB0BF7D21B03FB0CF761EBC3
:1019400007010CFB0EF7B0EB074072EB17420CFBE4
:1019500008F734BFA2EB0742B2EB074261EB174135
:101960004FEA8C554FEA910704EB9C2406FB07FCD9
:101970004FEA1C4C0CFB0BF7B0EBC74072EB573235
:1019800003FB0CF734BFA2EBC742B2EBC74261EBDB
:1019900057310CFB0EF7B0EBC70072EB57720CFB24
:1019A00008F734BFA2EBC702B2EBC70261EB577175
:1019B00015EB4C254FEA816141EA92114FEA8262B0
:1019C0004FEAD13742EA901206FB07FC44F10004CB
:1019D0004FEA80604FEA1C4C0CFB0BF7D21B03FB59
:1019E0000CF761EB07010CFB0EF7B0EB074072EB55
:1019F00017420CFB08F734BFA2EB0742B2EB0742D9
:101A000061EB174115EB1C154FEA813141EA924118
:101A10004FEA823242EA90424FEA80304FEA0C7637
:101A200044F1000448EA03434EEA0B484FF0000E2D
:101A3000B2EB080C71EB030724BF624639464EEB4C
:101A40000E0E4FF0000B0018524149414BEB0B0BAF
:101A5000B2EB080C71EB03077BF1000B24BF62466D
:101A600039464EEB0E0E4FF0000B00185241494123
:101A70004BEB0B0BB2EB080C71EB03077BF1000B8C
:101A800024BF624639464EEB0E0E51EA020718BFDC
:101A900046F0010616EB0E7655F1000254F10001F6
:101AA00003D5BDE88901BDE80088BDE88901BDE82E
:101AB0000048B619524141EB0101A3F101037047FF
:101AC00080807F7E7D7C7B7A79787776767574737B
:101AD000727171706F6E6E6D6C6C6B6A6A6968683A
:101AE000676666656464636362616160605F5F5ED0
:101AF0005E5D5D5C5C5B5B5A5A5959585857575646
:101B000056555555545453535252525151505050AA
:101B10004F4F4F4E4E4D4D4D4C4C4C4B4B4B4A4AFC
:101B20004A49494948484847474747464646454540
:101B30004544444444434343434242424241414179
:101B4000002B9C4630D477002BD01CB54FEA3707CA
:101B500003B44FF010004FF01001BAF1000F06D09F
:101B6000BCF1000FDCBF40F0080040F008014FF06E
:101B700000000FBCBDE810400BF1010BBBF1010FE1
:101B800008BF5FEA170722BF12F1010211F101013C
:101B90004FF0004143F1000300F0004043EA000031
:101BA0007047F9D35708D0E746EA064613F1400FCD
:101BB0004FEA16461FDD13F1200FDFBF16430A461A
:101BC000002120335B42BED0C3F1200746EA06461F
:101BD00002FA07F74FEA164646EA0706C3F120075E
:101BE00022FA03F201FA07F721FA03F14FF000039A
:101BF00042EA0702A7E746EA020646EA06464FEA35
:101C0000164646EA0106BCBF46EA0646360C4FF0C9
:101C100000034FF000024FF0000194E72DE9804CE3
:101C20009A46934670B491E8380007C831EA400CF0
:101C300048BF34EA430C03D5FFF7E6FDFFF780FF0A
:101C4000F0BCBDE8008C2DE9804C9A46934670B4F8
:101C500091E8380007C810F0804F08BF13F0804F9C
:101C600003D100F005F8FFF76BFFF0BCBDE8008C76
:101C700020F07F4780EA030023F07F4C07EB0C0342
:101C8000A3F57C5300F00040A3F1FE0392F0000F97
:101C900000F0B38095F0000F00F077802DE9014946
:101CA0004FEA11404FEA144621EA004800FB06FCC7
:101CB00024EA064708FB06F607FB08F800FB07F7CF
:101CC00018EB06484CEB164C4FEA124B18EB074842
:101CD0004FEA15464CEB174022EA0B4E0BFB06FC75
:101CE00025EA06470EFB06F607FB0EFE0BFB07F781
:101CF0001EEB064E4CEB164C4FF000061EEB074E4B
:101D00004CEB174B18EB0B0840F1000018EB0E0BD7
:101D100058EB000840F100008F1A4FF000013CBF63
:101D2000C943661B14BFB5EB040C00213CBFC9437B
:101D3000F61B4FEA17444EEA8E0E27EA04454FEA97
:101D40001C4704FB07622CEA074C05FB07F70CFB5A
:101D500005F604FB0CFC16EB074642EB174216EBAC
:101D60000C4642EB1C421BEB060658EB02024141BB
:101D700046EA9E0601D5BDE80189B619524141EBFC
:101D80000101A3F10103BDE801894FEA14454FEABF
:101D9000114724EA054621EA074C05FB07F406FB38
:101DA00007F70CFB06F105FB0CFC11EB074144EBBC
:101DB00017444FEA124711EB0C4144EB1C4422EA52
:101DC000074C05FB07F206FB07F70CFB06F605FBC5
:101DD0000CFC16EB074642EB174216EB0C4642EBA7
:101DE0001C456A1854F1000148BF7047B6195241AA
:101DF00041EB0101A3F10103704795F0000F37D0CB
:101E00004FEA11424FEA144721EA024624EA074CFE
:101E100002FB07F106FB07F70CFB06F402FB0CFCC8
:101E200014EB074441EB17414FEA154714EB0C4400
:101E300041EB1C4125EA074C02FB07F506FB07F7BF
:101E40000CFB06F602FB0CFC16EB074645EB1745B0
:101E500016EB0C4645EB1C42121951F1000148BF2C
:101E60007047B619524141EB0101A3F101037047DC
:101E70004FEA14454FEA114724EA054621EA074C88
:101E800005FB07F106FB07F70CFB06F24FF0000617
:101E900005FB0CFC12EB074241EB174112EB0C4225
:101EA00051EB1C4148BF7047921841EB0101A3F16F
:101EB0000103704721B1826842F00102826003E0B1
:101EC000826822F001028260704721B1826842F488
:101ED0008072826003E0826822F4807282607047C0
:101EE000014600208A6802F004020AB1012000E0E5
:101EF00000207047014600208A6802F008020AB1FB
:101F0000012000E00020704730B502460020002389
:101F100050680F4C20400D790C6844EA052420439A
:101F2000506090680B4C2040D1E902542C434D790D
:101F300044EA450420439060D06A20F470000C7C91
:101F4000641EE4B2234340EA0350D06230BD000077
:101F5000FFFEF0FFFDF7F1FFF0B504460D4600204F
:101F60000021092D11DDE068A5F10A0606EB460700
:101F7000072606FA07F18843A5F10A0606EB46068E
:101F800003FA06F10843E0600CE0206905EB450721
:101F9000072606FA07F1884305EB450603FA06F122
:101FA00008432061072A0FDA606B561E06EB86078E
:101FB0001F2606FA07F18843561E06EB860605FA29
:101FC00006F10843606322E00D2A0FDA206BD61F6A
:101FD00006EB86071F2606FA07F18843D61F06EB95
:101FE000860605FA06F10843206310E0E06AA2F1D4
:101FF0000D0606EB86071F2606FA07F18843A2F1B5
:102000000D0606EB860605FA06F10843E062F0BD10
:10201000816841F008018160704721B1826842F413
:10202000A002826003E0826822F4A002826070470E
:10203000816841F0040181607047000008B501210A
:10204000042000F0EFFC0220ADF8000000208DF825
:1020500003006946014800F07CFB08BD0008014010
:1020600010B5FFF7EBFF00F001F810BD00B591B01F
:102070000121084600F0B6FC0121480200F0D2FC24
:10208000334800F00BF9334806903348079000209E
:1020900008900120099000200A900B904FF4807066
:1020A0000C9080000D9020200E9000020F900020D8
:1020B000109006A9264800F097F90121244800F065
:1020C000E1F8002001908DF8080001208DF809004A
:1020D0004FF4602003900020049001208DF814003C
:1020E00001A91C484C38FFF70FFF4FF4404000F0A7
:1020F0006DFC05230122114616484C38FFF72CFFD2
:10210000012114484C38FFF7E0FE012111484C38FA
:10211000FFF7D0FE0F484C38FFF77AFF00BF0D489D
:102120004C38FFF7E7FE0028F9D10A484C38FFF792
:102130007FFF00BF07484C38FFF7D2FE0028F9D1D7
:10214000012104484C38FFF768FF11B000BD0000C2
:10215000080002404C2401407400002008B5012111
:10216000042000F05FFC0120ADF8000010208DF885
:10217000030003208DF802006946044800F0E9FAE4
:102180000121024800F070FB08BD0000000801407A
:1021900010B5012000F056FC002000F053FC10BDEB
:1021A00008B50146002000900348009000980844BC
:1021B00000900098008808BD006C004008B500221F
:1021C0000092044A0092009A02440092009A116020
:1021D00008BD0000006C004000BFFEE74FF0FF307C
:1021E0000249086048608860704700006400002071
:1021F00010B500F04BFD00F5E14400200EE007E0D3
:102200001D4951F820101D4A11441B4A42F8201064
:10221000194951F82010A142F2D3401C0328EEDBEB
:10222000154800681449496888420ED2124800686F
:1022300011498968884203D20F481149086013E0A8
:102240000D4808300E4908600EE00B4840680A4906
:102250008968884204D20848001D0949086003E0E3
:10226000054808300649086005490968086800F013
:1022700049FD00F073FD10BD640000208051010095
:102280007000002021B1026842F00102026004E007
:1022900002684FF6FE731A400260704701684FF6FD
:1022A000FE72114001600021016041608160C160E7
:1022B0004B49884208D14A490839496841F00F0121
:1022C000474A083A51608AE045491431884208D1AA
:1022D00043490839496841F0F001414A083A5160E0
:1022E0007DE03F492831884208D13D490839496895
:1022F00041F470613A4A083A516070E038493C3123
:10230000884208D136490839496841F47041344A55
:10231000083A516063E032495031884208D130496F
:102320000839496841F470212D4A083A516056E055
:102330002B496431884208D129490839496841F458
:102340007001274A083A516049E0254978318842AE
:1023500008D123490839496841F07061204A083A98
:1023600051603CE01F49884206D1011F096841F0D5
:102370000F01021F116032E01A491431884208D15E
:102380001849091F096841F0F001164A121F11602F
:1023900025E014492831884208D11249091F0968EB
:1023A00041F470610F4A121F116018E00D493C3171
:1023B000884208D10B49091F096841F47041094A54
:1023C000121F11600BE007495031884207D10549BF
:1023D000091F096841F47021024A121F11607047F9
:1023E000080002400804024010B50022026847F6C7
:1023F000F0739A430C6A8B6823430C6923434C693E
:1024000023438C692343CC6923434C6A23438C6A5E
:1024100023431A430260CB6843600B6883604B68B8
:10242000C36010BD704700002DE9F04104460D4621
:1024300016461F462DA0FDF707FF00202C49086017
:1024400000BF2B480068B0F5FA7FFAD329A0FDF74A
:10245000FBFE00202649086000BF25480068B0F553
:10246000FA6FFAD327A0FDF7EFFE0020204908609D
:1024700000BF1F480068B0F5FA7FFAD32A4621460C
:1024800024A0FDF7E1FE00201949086000BF1848AC
:10249000006841F658318842F9D33A46314623A0C4
:1024A000FDF7D2FE00201249086000BF1048006806
:1024B000B0F57A7FFAD324A0FDF7C6FE00200C49C0
:1024C000086000BF0A480068B0F5FA7FFAD322A07E
:1024D000FDF7BAFE00200649086000BF0448006806
:1024E000B0F5FA7FFAD3BDE8F08100002B2B2B006A
:1024F0001000002041542B524553544F52450D0AB1
:102500000000000041542B43574D4F44453D310DD1
:102510000A00000041542B43574A41503D22257385
:10252000222C222573220D0A0000000041542B4367
:10253000495053544152543D22544350222C222599
:1025400073222C25640D0A0041542B4349504D4FF2
:1025500044453D310D0A000041542B434950534539
:102560004E440D0A000000002DE9F04196B080466F
:10257000002003900490059035A1404600F096F8A5
:10258000041E62D0002004E014F8011B03AA1154B9
:10259000401C2178302902DD21783929F4DB03A899
:1025A000FDF774FF06462C480168B1424DD0066025
:1025B0002AA1404600F068F8041E11D0002505E06D
:1025C00014F8012B28466D1C0EA90A5420782228E5
:1025D000F6D100200EA948550EA800F02BFD00BF33
:1025E000FFF7FCFD20A1404600F060F8041E2CD04F
:1025F00020783038C7B2002521E0002000900190FB
:1026000002902A461CA16846FDF72AFE694640460C
:1026100000F03AF8041E0DD0002005E014F8013B4C
:102620000146401C06AA53542228F7D1002106AACD
:10263000115400BF294606A800F02EFC6D1CBD42B7
:1026400001DA032DD9DBFFF7D3FD16B0BDE8F08129
:102650004861736800000000080000204461746550
:1026600054696D6500000000506572696F644E75B5
:102670006D6265720000000057616B65757054698A
:102680006D6525640000000070B506460C462146C5
:102690003046FDF708FF051E06D02046FDF715FF62
:1026A0002844051D284670BD0020FCE770B506468D
:1026B0000C4621463046FDF7F6FE051E06D02046A4
:1026C000FDF703FF2844C51C284670BD0020FCE729
:1026D00010B500F029F800F001F810BD0EB5012189
:1026E000084600F08FF940F2E730ADF804004720CB
:1026F000ADF800000020ADF80600ADF802008DF83E
:10270000080069464FF0804000F012FD0121880763
:1027100000F0F6FC01221146900700F000FD0121B7
:10272000880700F0F0FC0EBD08B54FF4E06000F043
:102730003BF91C208DF8000002208DF801000320D9
:102740008DF8020001208DF80300684600F0F4F8CF
:1027500008BD2DE9F0410246002500260020002397
:102760000024002791F803C00CF00F0591F803C076
:102770000CF0100CBCF1000F03D091F802C04CEA31
:10278000050591F800C0BCF1000F31D0146800209D
:102790002BE04FF0010C0CFA00F3B1F800C00CEA8A
:1027A00003069E4220D183004FF00F0C0CFA03F772
:1027B000BC4305FA03FC4CEA040491F803C0BCF1E5
:1027C000280F06D14FF0010C0CFA00FCC2F814C01F
:1027D0000AE091F803C0BCF1480F05D14FF0010C9D
:1027E0000CFA00FCC2F810C0401C0828D1D31460B9
:1027F000B1F800C0BCF1FF0F34DD546800202EE0BA
:1028000000F1080C4FF0010808FA0CF3B1F800C011
:102810000CEA03069E4221D183004FF00F0C0CFA04
:1028200003F7BC4305FA03FC4CEA040491F803C027
:10283000BCF1280F05D100F1080C08FA0CF8C2F819
:10284000148091F803C0BCF1480F07D100F1080CC7
:102850004FF0010808FA0CF8C2F81080401C082854
:10286000CED35460BDE8F08141617047016170478B
:10287000F0B58DB004463022224901A8FDF750FE84
:102880006069451E642195FBF1F12846EA1705EBC6
:102890009272C1EBA2014FF4C87295FBF2F28F184D
:1028A0006069C11700EB91718910A0EB810191B9AA
:1028B0006422616991FBF2F302FB131131B99200BA
:1028C000616991FBF2F302FB131121B9216902291D
:1028D00001DD012600E0002640F26D1005FB0071CD
:1028E0002069401E01AA52F820000844E16808440B
:1028F0000644072096FBF0F100FB1160A0610DB0CB
:10290000F0BD0000883C000800BFFEE700BFFEE706
:10291000704708B54FF4A06000F046F825208DF808
:10292000000001208DF801008DF802008DF80300F1
:10293000684600F001F808BD70B5002100230F22A1
:10294000C47804B3154C246804F4E064C4F5E0646E
:10295000210AC1F10403CA40447804FA03F18478DF
:102960001440214309010E4C0678A155047804F067
:102970001F050124AC4005786D11AD0005F1E0257F
:10298000C5F8004109E0047804F01F050124AC40BB
:10299000044D0678761145F8264070BD0CED00E038
:1029A00000E400E080E100E002490143024A1160D6
:1029B000704700000000FA050CED00E001490862D4
:1029C0007047000000000E427047000001460020E2
:1029D000034A506820F440400843506070470000AC
:1029E0000010024029B1064A52690243044B5A6161
:1029F00004E0034A52698243014B5A617047000068
:102A00000010024029B1064AD2690243044BDA6140
:102A100004E0034AD2698243014BDA617047000047
:102A20000010024029B1064A92690243044B9A61A0
:102A300004E0034A92698243014B9A6170470000A7
:102A40000010024001490860704700004004424203
:102A50000348406A40F080700149486270470000B6
:102A60000010024030B500210022002400232D4D2B
:102A70006D6805F00C0121B1042905D0082923D186
:102A800005E0294D056022E0274D05601FE0254D3A
:102A90006D6805F47012234D6D6805F480340225CD
:102AA00005EB92421CB9214D554305600BE01D4DCD
:102AB0006D6805F400351DB11C4D5543056002E0FD
:102AC000194D5543056002E0174D056000BF00BF7A
:102AD000144D6D6805F0F0010909154D6B5C056832
:102AE000DD4045600F4D6D6805F4E061090A104D49
:102AF0006B5C4568DD4085600A4D6D6805F460518A
:102B0000C90A0B4D6B5C4568DD40C560054D6D68BD
:102B100005F44041890B074D6B5CC568B5FBF3F5C7
:102B2000056130BD0010024000127A0000093D002E
:102B30004C0100205C01002010B50146002200235A
:102B400000204A11012A02D1094C236806E0022A1A
:102B500002D1074C236A01E0054C636A01F01F02B1
:102B6000012494401C400CB1012000E0002010BD65
:102B70000010024001490860704700008004424292
:102B800001490860704700003C0442420249096A5A
:102B90000143014A116270470010024010B504461B
:102BA0000420FFF7FDFA4AF2A551884208D02046DA
:102BB00000F010FB4AF2A5510420FFF7FFFA22E0D3
:102BC000204600F007FB01214FF0C050FFF71AFF2D
:102BD0000120FFF7F3FE0120FFF7CCFF00BF6120CB
:102BE000FFF7AAFF0028FAD07B20FFF7A5FF10B956
:102BF0007A20FFF7A1FF00F0BBF80121032000F0CD
:102C00005BF800F0ABF8FFF723FF10BD10B5012112
:102C10004FF0C050FFF7F6FE0120FFF7CFFEFFF7A1
:102C2000B7FA0120FFF7A6FF00BF6120FFF784FF7E
:102C30000028FAD04FF40070FFF7A8FF0120FFF73B
:102C40009FFF00F095F800F089F80121032000F0C3
:102C500033F800F083F849F63F4000F06FF800F0D9
:102C60007DF810BD0348008840F01000014908803D
:102C70007047000004280040034800884FF6EF71B9
:102C8000084001490880704704280040002103489B
:102C90000188001F008841EA004070471C2800405E
:102CA00001460020034A12880A400AB1012000E0D0
:102CB000002070470428004029B1064A12880243C8
:102CC000044B1A8004E0034A12888243014B1A80A5
:102CD000704700000028004008B54FF4C060FFF7BF
:102CE00063FE03208DF8000001208DF80100002014
:102CF0008DF8020001208DF803006846FFF71CFEE6
:102D000008BD000000B50246FFF7ACFF100C0349F8
:102D10000880091D0A80FFF7AFFF00BD2028004092
:102D200000B50246FFF79EFF100C03490880091DFD
:102D30000A80FFF7A1FF00BD1828004000B5024639
:102D4000FFF790FFC2F3034003490880091D0A8082
:102D5000FFF792FF00BD00000828004000BF0348B5
:102D6000008800F020000028F9D0704704280040B7
:102D7000074800884FF6F77108400549088000BFF2
:102D80000348008800F008000028F9D070470000D0
:102D900004280040704700002DE9F041D0B00446FF
:102DA00000202A490860642105A8FDF7EBFB28A153
:102DB00005A8FDF7A9FB2A482AA102686846FDF785
:102DC0004FFA694605A8FDF79FFB27A105A8FDF767
:102DD0009BFB54F8048B404600F096FD05462A46BE
:102DE0000B4625A16846FDF73BFA694605A8FDF7A5
:102DF0008BFB012519E054F8048B404600F084FD5C
:102E000006461F4A1F4B00F049FD0DD2404600F018
:102E10007BFD064632460B461BA16846FDF720FAAD
:102E2000694605A8FDF770FB6D1C282DE3DB69469C
:102E300005A8FDF769FB16A105A8FDF765FB05A927
:102E400014A0FDF701FA50B0BDE8F0811000002099
:102E50007B224465766963654944223A200000007C
:102E600004000020256400002C202250726573733A
:102E7000757265223A205B00252E33660000000043
:102E80007B14AE47E17A843F2C252E336600000088
:102E90005D7D0000257300002DE9F04788B00446F1
:102EA0000F460020A07060712046FDF7EFFAC5B212
:102EB000E01CFDF7EBFAC6B2601DFDF7E7FA00F083
:102EC000FF08FFF7E3FE00F5E14A01A9504600F0D4
:102ED000B7FB0398A84200DA26E00398A84203D182
:102EE0000298B04200DA1FE00298B04203D1019884
:102EF000404500DA18E001A800F064FB114900EB3E
:102F0000010901A9484600F09BFB03950296CDF804
:102F1000048001A800F056FBA0F5E1400A4941F801
:102F2000270008B0BDE8F08703950296CDF804802D
:102F300001A800F047FBA0F5E140034941F8270054
:102F400000BFEEE7805101006400002010B500F0E2
:102F500001F810BD0CB500200190009033480068C6
:102F600040F480303149086000BF3048006800F408
:102F7000003000900198401C0190009818B9019809
:102F8000B0F5A06FF1D12948006800F4003010B10D
:102F90000120009001E0002000900098012843D11A
:102FA0002348006840F01000214908600846006886
:102FB00020F0030008600846006840F00200086046
:102FC0001A48406819494860084640684860084601
:102FD000406840F4806048600846406820F47C10F7
:102FE00048600846406840F4E810486008460068B9
:102FF00040F08070086000BF0C48006800F000706E
:103000000028F9D00948406820F0030007494860CB
:103010000846406840F00200486000BF034840682E
:1030200000F00C000828F9D10CBD0000001002408F
:103030000020024030B587B00446254600202871A4
:10304000E871A872687328742846FDF71FFA059086
:10305000681DFDF71BFA049005F10800FDF716FA4C
:10306000039005F10B00FDF711FA029005F10E0037
:10307000FDF70CFA019005F11100FDF707FA009039
:10308000FFF76CFE00BF0120FFF70AFE0028FAD010
:10309000684600F09FF8FFF761FE07B030BD70474B
:1030A00010B51348006840F0010011490860084657
:1030B0004068104908400E494860084600680E49BB
:1030C00008400B4908600846006820F4802008602A
:1030D0000846406820F4FE0048604FF41F008860F6
:1030E000FFF734FF4FF000600449086010BD000096
:1030F000001002400000FFF8FFFFF6FE08ED00E0C0
:10310000CA430282704721B1028842F00102028064
:1031100004E002884FF6FE731A40028070471AB12D
:1031200083890B43838102E083898B4383817047CA
:10313000002202881D4B98420ED01D4B98420BD0A6
:10314000B0F1804F08D01B4B984205D01A4B9842E3
:1031500002D01A4B984204D14FF68F731A404B8815
:103160001A43174B984207D0164B984204D04FF69B
:10317000FF431A40CB881A4302808B8883850B88D3
:1031800003850A4B98420BD0094B984208D00E4B4E
:10319000984205D00D4B984202D00D4B984201D178
:1031A0000B7A03860123838270470000002C0140C4
:1031B000003401400004004000080040000C0040C2
:1031C0000010004000140040004001400044014055
:1031D0000048014070B50446FFF718FDFFF7BEFD3B
:1031E0002046FFF745FB204600F0ECF9A0F5E1454D
:1031F0002846FFF795FDFFF7B1FD70BD21B182892B
:1032000042F40052828104E082894DF6FF731A4035
:103210008281704700B585B001210420FFF702FCD0
:1032200001218803FFF7FEFB4FF40070ADF810009A
:1032300018208DF8130003208DF8120004A91A48F5
:10324000FFF787FA4FF48060ADF8100004208DF886
:10325000130004A91448FFF77CFA4FF4E130009002
:103260000020ADF80400ADF80600ADF80800ADF898
:103270000C000C20ADF80A0069460C4800F04AF832
:10328000FFF747FB012240F22441084800F01DF8F7
:10329000012240F22551054800F017F801210348AA
:1032A000FFF7ACFF05B000BD000801400038014049
:1032B00002460020B1F5007F00D100BF13880B400B
:1032C0000BB1012000E000207047F0B50346002458
:1032D00000260025002040F66A17B94200D100BF41
:1032E0001846C1F3421401F01F06012707FA06F53C
:1032F000012C01D10C3004E0022C01D1103000E08F
:1033000014301AB107682F43076002E00768AF4323
:103310000760F0BD2DE9F04786B005460E46002453
:10332000A24600BFA1460027B08900B100BF2F46CA
:103330002C8A4CF6FF700440F08804432C82AC8940
:103340004EF6F3100440B088318908437189084370
:103350000443AC81AC8A4FF6FF400440B08904437B
:10336000AC8201A8FFF77EFB1F48874202D1DDF83F
:1033700010A001E0DDF80CA0A88900F4004040B1E5
:103380000AEBCA0000EB0A1031684900B0FBF1F803
:1033900007E00AEBCA0000EB0A1031688900B0FBB5
:1033A000F1F86420B8FBF0F004012009642101FB6E
:1033B0001089A88900F4004040B1322000EBC90018
:1033C000B0FBF1F000F00700044308E0322000EB0E
:1033D00009106421B0FBF1F000F00F0004432C81D0
:1033E00006B0BDE8F087000000380140C1F30802D4
:1033F0008280704700BFFEE7490050EAC12018BF35
:1034000004204A0D18BF40F0010040F2FF72B2EBF9
:10341000515F08BF40F00200012808BF0520704737
:1034200030380A2801D20120704700207047000080
:1034300070B504460D46E1B20548FFF7D7FF00BF5F
:1034400080210348FFF734FF0028F9D0204670BDE3
:1034500000380140A8B0002600240027FFF738F903
:10346000FFF73AFC4948FFF799FBFEF7F9FDFEF735
:1034700075FE01214648FFF7F7F9FFF7CBFE002262
:1034800040F225514348FFF720FF43480368434873
:1034900002684348016843480068FEF7C5FF0122FF
:1034A00040F225513B48FFF710FF00203E490860DD
:1034B0006BE03D480068B0F5FA7F3FD900203A49FB
:1034C00008603A48008800F019FB8046384900F04F
:1034D00053FA05463846791CCFB24DF82050641097
:1034E00034480168284600F09CFB01D244F0800477
:1034F000E02C0EDD6EB96846FFF74EFC002003E0BD
:1035000000214DF82010401C2828F9DB0027012657
:1035100014E0102C12DA012E10D16846FFF73CFCA3
:10352000002003E000214DF82010401C2828F9DB82
:103530000027002601211648FFF796F91E4800686B
:1035400001280AD100201C490860012E03D1012165
:103550000F48FFF78BF9FEF74BFE1848007801285B
:1035600005D10020154908701548FEF7FDFF282FEA
:103570000BD16846FFF710FC002003E000214DF856
:103580002010401C2828F9DB002792E72C0000209F
:1035900000080140003801402400002020000020E5
:1035A0001C000020180000201000002074000020E3
:1035B0000020804528000020AC0000200E000020E4
:1035C0006C01002010B501460869801E08610028C2
:1035D00005DC08690C3008614869401E48616423B5
:1035E000486990FBF3F04A69D31702EB9373C0EB81
:1035F000A3004FF4C87492FBF4F3034440F26F1439
:10360000086960430C2490FBF4F01844CB68034431
:1036100040F26D1402FB0430084BC01A00EB40006E
:103620008B6803EBC000C0EB00104B6803EB80001D
:10363000C0EB00100B6803EB800010BD8BFA0A0092
:103640002DE9F04107460C462E48B7FBF0F6B7FBD4
:10365000F0F100FB11784FF4616098FBF0F0A0608E
:103660004FF4616098FBF0F100FB11803C2190FB6E
:10367000F1F060604FF4616098FBF0F100FB1180A5
:103680003C2190FBF1F201FB1200206040F2B27588
:1036900009E005F0030010B94FF4B77001E040F203
:1036A0006D10361A6D1C05F0030010B94FF4B77099
:1036B00001E040F26D10B042EBDD65616069C11759
:1036C00000EB91718910A0EB810111B91D200E4909
:1036D0004860012505E0681E0B4951F82000361AA4
:1036E0006D1C681E084951F82000B042F3DD1C2013
:1036F00048602561701CE0602046FFF7B9F8BDE81E
:10370000F0810000805101007800002010B50029F0
:103710000AD00878002807D005487844FDF79AFDBC
:10372000002801D0002010BD0248784410BD0000E0
:103730007E0700007607000010B500290AD008783F
:10374000002807D005487844FDF784FD002801D003
:10375000002010BD0248784410BD00006E07000034
:1037600066070000491058BFC1F140415B1058BFC7
:10377000C3F140438B42EFF30080704751EA030CE2
:1037800017D41CF5801F58BFBCF5801F00F10680C0
:10379000994218BF704708BF9042704707D711F58C
:1037A000801F58BF13F5801F19D499427047894272
:1037B00070471CF5801F08D5BCF5801FF7D58B42DC
:1037C00018BF704708BF824270474FF4001C1CEBC3
:1037D000410F38BF1CEB430F01D28B42704770B5CD
:1037E00000F008F8922449004FF000514FF0805348
:1037F000FFF7B8BF0EF1020E2EF0030E5EF8046B59
:10380000364205D4012A43EB030515F5001F12D8F3
:10381000012841EB010C1CF5001F0CD80ED14FEA1A
:10382000D17C15F5001F0CEB4C0C0CF1020C08BF01
:103830004CEBD37C04E04FF0080C01E04FEAD37C62
:103840000CEB4C0526FA05F606F00706B6F1040C5B
:1038500006D20EEB860CBDE870404CF0010C6047C0
:10386000DFE80CF0090B02024FF000414FF00000BE
:10387000A1F5002170BD19461046012851EB010445
:1038800018BFD4F5001484BF002001F0004170BDC2
:103890000808A0F500114FEA3101704753EA010C06
:1038A00017D41CF5801F58BFBCF5801F00F106809F
:1038B0008B4218BF704708BF8242704707D713F585
:1038C000801F58BF11F5801F19D48B4270479B424F
:1038D00070471CF5801F08D5BCF5801FF7D59942AD
:1038E00018BF704708BF904270474FF4001C1CEB94
:1038F000430F38BF1CEB410F01D2994270470FB400
:103900000CBC03BCFFF76BBF43004FEAD30C4FEA7C
:103910003C0C43401FBF40070CF1605113F0FE4FB9
:1039200070471CF0006F03D100200CF0004170477D
:103930000CF0004343EA507010B540EACC0000F0B0
:1039400025F900BF000000924FEA0001FFF7A0BF79
:103950004FF000414FF00000A1F5002170474010EA
:1039600058BFC0F14040491058BFC1F140418142A9
:10397000EFF30080704700004FF47F0C1CEAD01278
:103980001EBF1CEAD11392EA0C0F93EA0C0F00F051
:10399000858090EA010F48BF42F4807240F4000C29
:1039A00041F400002CF07F4120F07F4000B58142BF
:1039B000A2EB03020FF2081CACEB504EC0F100006A
:1039C0009EF800E04FEA4E0E00FB0EFC38BF4900A7
:1039D0004FEA2C1C02F5FA020CFB0EF34FEACE1E46
:1039E0004FEA112C4FEAC1210EEB635E42EB2242FB
:1039F0000EFB0CFC4FEA1C5300FB03114FEA112C89
:103A00004FEA01310EFB0CFC4FEADC4C00FB0C11C1
:103A1000C14228BF09184CEB03335DF804EB10EBEF
:103A2000410143EBC250B2F57C0F38BF704729D536
:103A300012F0F00F1CBF00F1C04000F000407047D2
:103A4000008182838485868788898B8C8D8E8F9177
:103A50009293959697999A9C9D9FA0A2A3A5A7A89B
:103A6000AAACAEB0B2B3B5B7B9BCBEC0C2C5C7C9C7
:103A7000CCCED1D4D7D9DCDFE2E6E9ECF0F3F7FA2B
:103A8000FE0000004FEA400C0CF1807CBCF17E4F40
:103A900028BF7047B0F1C04000F0BEB890EA010FF7
:103AA0000CEAD11348BF42F48072624538BF6345C7
:103AB00007D213F47F0F16D080EA010000F0004017
:103AC000704710B500F062F8097EFC3E00F005B8C2
:103AD00080EA010000F00040704780EA010000F039
:103AE000004000F099B812F47F0F04BF02487047FD
:103AF00080EA010000F090B80000C07FB0FA80F3C7
:103B000010FA03F2C3F19D030AD0D90501EB12208C
:103B1000530638BF704700F1010008BF20F00100D4
:103B20007047000050EA010C00F113801CF5000FF3
:103B300058BFBCF5000F01D48842704707D710F575
:103B4000000F58BF11F5000F15D488427047894205
:103B500070471CF5000F04D5BCF5000FF7D5814266
:103B600070474FF0807C1CEB400F38BF1CEB410FBF
:103B700001D28142704710B500F008F89224490044
:103B80004FF000504FF08051FFF7E9BE0EF1020EEA
:103B90002EF0030E5EF8044B244204D44FEA410297
:103BA000B2F17F4F11D84FEA4003B3F17F4F0CD8E9
:103BB0000ED14FEAD07CB2F17F4F0CEB4C0C0CF1E4
:103BC000020C08BF4CEBD17C04E04FF0080C01E084
:103BD0004FEAD17C0CEB4C0324FA03F404F0070405
:103BE000B4F1040C06D20EEB840CBDE810404CF08E
:103BF000010C6047DFE80CF0070802024FF00040BC
:103C0000A0F5800010BD0846420018BFD2F18072B6
:103C100088BF00F0004010BDFF2141EAD050C00530
:103C2000704751EA000C00F113801CF5000F58BFDB
:103C3000BCF5000F01D48142704707D711F5000F82
:103C400058BF10F5000F15D4814270478942704764
:103C50001CF5000F04D5BCF5000FF7D5884270475E
:103C60004FF0807C1CEB410F38BF1CEB400F01D2A2
:103C70008842704780EA010081EA000180EA010081
:103C8000FFF779BFFCF7DEBD000000001F00000059
:103C90003B0000005A000000780000009700000080
:103CA000B5000000D4000000F30000001101000086
:103CB000300100004E010000040000080000000078
:103CC000000000020001000010000000024000009F
:103CD000000000A00000000005400000000000C837
:103CE000000000000C4000000000409C00000000AC
:103CF000194000000020BCBE00000000344000005D
:103D0000BFC91B8E00000004B5400000504BCFD04F
:103D10006607E2CF010000006C4100003E8251AA1C
:103D2000DFEEA73401000000D9420000DCB5A0E2BC
:103D30003A301F97FFFFFFFFB4450000FD25A0C8E4
:103D4000E9A3C14FFFFFFFFFFF3F0000000000801D
:103D500000000000FF3F00000000008000000000A5
:103D60003A7474003A7474003A7474003137352E22
:103D700032342E37362E3631000000004A494D2DA0
:103D80005237303030494949000000004A696D48D7
:103D90006F7473706F740000536E616B6500000088
:103DA000486F72736500000050696700446F6700D8
:103DB000447261676F6E00005469676572000000AD
:103DC000526F6F737465720052617400476F617453
:103DD0000000000052616262697400004F780000C8
:103DE00046726964617900004D6F6E64617900000C
:103DF00053756E6461790000536174757264617902
:103E0000000000005765646E65736461790000000E
:103E1000547565736461790054687572736461796F
:103E2000000000004D6F6E6B65790000BBA20000C2
:103E3000C5A30000BCA60000B9B70000D2BB0000BB
:103E4000CDC30000CBC40000C8D50000C9DF00000E
:103E5000CEE50000C2ED0000D6ED0000BAEF000094
:103E6000D1F20000CAF30000C1F90000C1FA00005D
:103E7000C8FD0000B6FE0000C43F0008000000209E
:103E80006C010000280100087C4000086C01002043
:103E9000EC080000840100081C0000004300000042
:103EA000F8FFFFFF0C0000000E0000000F000000F4
:103EB0002E0000001001000043000000F8FFFFFF8B
:103EC000004040404040404040404141414141402D
:103ED00040404040404040404040404040404040E2
:103EE0004005020202020202020202020202020271
:103EF0000220202020202020202020020202020276
:103F000002029090909090901010101010101010CD
:103F100010101010101010101010101002020202D9
:103F2000020288888888888808080808080808081D
:103F30000808080808080808080808080202020219
:103F40004000000000000000000000000000000031
:103F50000000000000000000000000000000000061
:103F60000000000000000000000000000000000051
:103F70000000000000000000000000000000000041
:103F80000000000000000000000000000000000031
:103F90000000000000000000000000000000000021
:103FA0000000000000000000000000000000000011
:103FB0000000000000000000000000000000000001
:103FC0000000000041021302137C3D1B088C041A00
:103FD0006C042331D4C5CDCCCC3D5A010463D00749
:103FE000320F0A15051C9AFF0181321F5A1C08DA8C
:103FF0001E080912148113483E1B083C041A74045D
:104000001A70041A44041A50041A68041A58041A3C
:1040100064041A30041A2C041A40041A6C041A4C52
:10402000041A54041A60041A5C041A34041A38047A
:104030001AF0DC1AE8041A100C1A04041A18041AEC
:10404000E0101AF8041AA8041AC8041ADC041AB8F2
:10405000041AD4041AB0041A98041AA0041ACC043E
:104060001A24301AC0081AAC0429F039FC2C0203B7
:0C4070000404C009060708090204060841
:04000005080000ED02
:00000001FF
